:020000040800F2
:1000000038080020450100087D0F00087F0F000818
:10001000830F0008870F00088B0F00080000000006
:100020000000000000000000000000008F0F00082A
:10003000910F000800000000930F0008950F0008C2
:100040005F0100085F0100085F0100085F01000810
:100050005F0100085F0100085F0100085F01000800
:100060005F0100085F0100085F0100085F010008F0
:100070005F0100085F0100085F0100085F010008E0
:100080005F0100085F0100085F0100085F010008D0
:100090005F0100085F0100085F0100085F010008C0
:1000A0005F0100085F0100085F0100085F010008B0
:1000B0005F0100085F0100085F0100085F010008A0
:1000C0005F0100085F0100085F0100085F01000890
:1000D0005F0100085F0100085F0100089D0F000834
:1000E0005F0100085F0100085F0100085F01000870
:1000F0005F0100085F0100085F0100085F01000860
:100100005F0100085F0100085F0100085F0100084F
:100110005F0100085F0100085F0100085F0100083F
:100120005F0100085F0100085F0100085F0100082F
:10013000DFF80CD002F02AF8004800472D0F000825
:10014000380800200648804706480047FEE7FEE7DB
:10015000FEE7FEE7FEE7FEE7FEE7FEE7FEE7FEE777
:1001600047020008310100080CB500200190009002
:100170006C48006840F480306A49086000BF6948F4
:10018000006800F4003000900198401C0190009835
:1001900018B90198B0F5A06FF1D16248006800F479
:1001A000003010B10120009001E000200090009884
:1001B000012843D15C48006840F010005A490860AB
:1001C0000846006820F0030008600846006840F018
:1001D0000200086053484068524948600846406839
:1001E00048600846406840F48060486008464068BF
:1001F00020F47C1048600846406840F4E8104860ED
:100200000846006840F08070086000BF45480068FC
:1002100000F000700028F9D04248406820F0030048
:10022000404948600846406840F00200486000BF0E
:100230003C48406800F00C000828F9D10CBD10B50E
:10024000FFF792FF10BD10B53648006840F001007E
:1002500034490860084640683449084031494860DC
:1002600008460068324908402E4908600846006880
:1002700020F4802008600846406820F4FE004860B2
:100280004FF41F008860FFF7DAFF4FF00060294944
:10029000086010BD10B5002100200022214B5B68D2
:1002A00003F00C0121B1042906D0082928D107E068
:1002B000214B224C236027E01F4B204C236023E07E
:1002C000184B5B6803F47010164B5B6803F48032C4
:1002D000022303EB904022B9194B4343174C236090
:1002E0000DE0104B5B6803F4003323B1144B434320
:1002F000124C236003E0104B4343104C236003E097
:100300000D4B0E4C236000BF00BF064B5B68C3F370
:1003100003130C4CE15C094B1B68CB40074C23607A
:1003200010BD000000100240002002400000FFF855
:10033000FFFFF6FE08ED00E000127A00000000204A
:1003400000093D000400002031490143314A116099
:10035000704770B5002100230F22C47804B32D4CE0
:10036000246804F4E064C4F5E064210AC1F10403E4
:10037000CA40447804FA03F1847814402143090107
:10038000254C0678A155047804F01F050124AC40E3
:1003900005786D11AD0005F1E025C5F8004109E0D3
:1003A000047804F01F050124AC401C4D067876113A
:1003B00045F8264070BD1A4A0A400243154B1B1FE0
:1003C0001A60704739B1134A121D12680243114B6B
:1003D0001B1D1A6006E00F4A121D126882430D4B66
:1003E0001B1D1A607047042808D14FF0E0210969ED
:1003F00041F004014FF0E022116107E04FF0E021ED
:10040000096921F004014FF0E022116170470000FA
:100410000000FA050CED00E000E400E080E100E0FF
:1004200080FFFF1F10B50446CC48844208D101214B
:10043000042000F02DFB0021042000F029FB46E001
:10044000C748844208D10121082000F021FB002187
:10045000082000F01DFB3AE0C248844208D1012187
:10046000102000F015FB0021102000F011FB2EE001
:10047000BD48844208D10121202000F009FB002161
:10048000202000F005FB22E0B848844208D1012179
:10049000402000F0FDFA0021402000F0F9FA16E0BB
:1004A000B348844208D10121802000F0F1FA0021F4
:1004B000802000F0EDFA0AE0AE48844207D1012125
:1004C000801500F0E5FA0021A01500F0E1FA10BD5A
:1004D00010B50121084600F0DBFA0021012000F0F0
:1004E000D7FA10BD2DE9F041024600250026002074
:1004F00000230024002791F803C00CF00F0591F8A9
:1005000003C00CF0100CBCF1000F03D091F802C036
:100510004CEA050591F800C0BCF1000F31D0146819
:1005200000202BE04FF0010C0CFA00F3B1F800C0F2
:100530000CEA03069E4220D183004FF00F0C0CFA08
:1005400003F7BC4305FA03FC4CEA040491F803C02A
:10055000BCF1280F06D14FF0010C0CFA00FCC2F8D8
:1005600014C00AE091F803C0BCF1480F05D14FF068
:10057000010C0CFA00FCC2F810C0401C0828D1D3B2
:100580001460B1F800C0BCF1FF0F34DD54680020E6
:100590002EE000F1080C4FF0010808FA0CF3B1F856
:1005A00000C00CEA03069E4221D183004FF00F0CDD
:1005B0000CFA03F7BC4305FA03FC4CEA040491F877
:1005C00003C0BCF1280F05D100F1080C08FA0CF8A3
:1005D000C2F8148091F803C0BCF1480F07D100F1B4
:1005E000080C4FF0010808FA0CF8C2F81080401C03
:1005F0000828CED35460BDE8F0814FF6FF7101802A
:10060000022181700421C170704702460020936866
:100610000B400BB1012000E00020704701468868C4
:1006200080B2704702460020D3680B400BB1012016
:1006300000E0002070470146C86880B27047016141
:100640007047416170470AB1016100E04161704744
:10065000C16070474FF480320A43826181618261D8
:1006600082698269704702460020434B18684FF642
:100670008073184040EA021008433F4B18607047EF
:100680003E49C8617047F0B50A46002300240021A6
:10069000002500F00046B6F1004F02D1364EF16958
:1006A00001E0354E7168C0F3034583B200F4401693
:1006B000B6F5401F08D121F070612F4E766826F004
:1006C00070662D4F7E6012E000F48016B6F5801F34
:1006D00006D1032606FA05F4A14341F0706106E055
:1006E000460D360103FA06F6B14341F0706122B1BE
:1006F000460D360103FA06F6314300F00046B6F126
:10070000004F02D11C4EF16101E01B4E7160F0BD43
:1007100030B500228B071C0F0F2303FA04F2164B8F
:1007200008338C1053F824309343134C08348D1045
:1007300044F8253023468C1053F824308C07240FBE
:1007400000FA04F423430C4C08348D1044F825308F
:1007500030BD0A49DC3108607047000000080140E4
:10076000000C01400010014000140140001801403D
:10077000001C014000200140000001400000204218
:10078000DF48006840F00100DD4908600846406825
:10079000DC490840DA49486008460068DA49084000
:1007A000D74908600846006820F4802008600846A1
:1007B000406820F4FE0048604FF41F0088607047D6
:1007C000CF49096821F48031CD4A1160114609688A
:1007D00021F480211160B0F5803F03D0B0F5802F67
:1007E0000ED106E0C649096841F48031C44A11605F
:1007F00007E0C349096841F4A021C14A116000E043
:1008000000BF00BF704710B5014600220023002042
:100810004A11012A02D1BA4C236806E0022A02D109
:10082000B74C236A01E0B64C636A01F01F02012451
:1008300094401C400CB1012000E0002010BD38B5F0
:10084000002000900024002500BF3120FFF7DBFFCF
:1008500005460098401C00900098B0F5A06F01D0AC
:10086000002DF2D03120FFF7CEFF08B1012400E0C7
:100870000024204638BD01460020A14A106820F01F
:10088000F80040EAC10010607047A0490860704756
:10089000024600209A4B586820F47C1042EA01037B
:1008A0001843974B5860704798490866704701464F
:1008B0000020934A506820F00300084350607047BE
:1008C0008F48406800F00C007047014600208C4AB9
:1008D000506820F0F0000843506070470146002047
:1008E000874A506820F4E060084350607047014632
:1008F0000020834A506820F4605040EAC1005060F4
:10090000704729B17E4A527A02437D4B5A7204E005
:100910007B4A527A82437A4B5A7270477B49D8316C
:100920000860704701460020754A506820F4404036
:100930000843506070470021714A20321170704A9C
:1009400082F82010012802D004280AD104E00121F5
:100950006B4A2032117005E00521694A203211707E
:1009600000E000BF00BF70476949086070476449F4
:10097000096A0143624A1162704765494439086057
:10098000704730B500210022002400235C4D6D68C3
:1009900005F00C0121B1042905D0082923D105E077
:1009A0005C4D056022E05B4D05601FE0544D6D68B5
:1009B00005F47012524D6D6805F48034022505EB84
:1009C00092421CB9544D554305600BE04C4D6D6887
:1009D00005F400351DB1504D5543056002E04D4D05
:1009E0005543056002E04B4D056000BF00BF444D1C
:1009F0006D6805F0F0010909484D6B5C0568DD4044
:100A000045603F4D6D6805F4E061090A434D6B5C3C
:100A10004568DD4085603A4D6D6805F46051C90A4E
:100A20003E4D6B5C4568DD40C560354D6D6805F435
:100A30004041890B3A4D6B5CC568B5FBF3F5056128
:100A400030BD29B12E4A526902432D4B5A6104E050
:100A50002B4A526982432A4B5A61704729B1284A6E
:100A600092690243264B9A6104E0254A92698243C7
:100A7000234B9A61704729B1214AD2690243204B26
:100A8000DA6104E01E4AD26982431D4BDA61704785
:100A900029B11B4AD2680243194BDA6004E0184AB4
:100AA000D2688243164BDA60704729B1144A126942
:100AB0000243134B1A6104E0114A12698243104B3E
:100AC0001A61704712494039086070470F49C8647D
:100AD00070470B49C87170470948406A40F0807000
:100AE00007494862704701460020054A92680A405B
:100AF0000AB1012000E00020704701498872704768
:100B0000001002400000FFF8FFFFF6FE0000424226
:100B10008004424200127A0000093D0014000020C7
:100B20002400002010B50446FB48844209D101216D
:100B30008803FFF7ADFF00214FF48040FFF7A8FFC7
:100B400032E0F648844209D101214804FFF7ADFFA5
:100B500000214FF40030FFF7A8FF25E0F048844261
:100B600009D101218804FFF7A0FF00214FF4802064
:100B7000FFF79BFF18E0EB48844209D10121C8042C
:100B8000FFF793FF00214FF40020FFF78EFF0BE0EB
:100B9000E548844208D101210805FFF786FF0021BE
:100BA0004FF48010FFF781FF10BD2DE9F04786B0AC
:100BB00005460E460024A24600BFA1460027B08984
:100BC00000B100BF2F462C8A4CF6FF700440F0881D
:100BD00004432C82AC894EF6F3100440B08831896E
:100BE0000843718908430443AC81AC8A4FF6FF4047
:100BF0000440B0890443AC8201A8FFF7C2FEC64896
:100C0000874202D1DDF810A001E0DDF80CA0A88930
:100C100000F4004040B10AEBCA0000EB0A10316852
:100C20004900B0FBF1F807E00AEBCA0000EB0A103C
:100C300031688900B0FBF1F86420B8FBF0F00401E2
:100C40002009642101FB1089A88900F4004040B10B
:100C5000322000EBC900B0FBF1F000F007000443C4
:100C600008E0322000EB09106421B0FBF1F000F045
:100C70000F0004432C8106B0BDE8F0874FF41651F5
:100C8000016000218180C18001810C21418100210E
:100C90008181704710B502460020108A4FF2FF0391
:100CA00018400B884C8823438C882343CC882343EB
:100CB0001843108210BD0021018041808180C180D5
:100CC000704721B1828942F40052828104E0828916
:100CD0004DF6FF731A4082817047F0B50346002439
:100CE00000260025002040F66A17B94200D100BF57
:100CF0001846C1F3421401F01F06012707FA06F552
:100D0000012C01D10C3004E0022C01D1103000E0A4
:100D100014301AB107682F43076002E00768AF4339
:100D20000760F0BD1AB1838A0B43838202E0838A95
:100D30008B4383827047028A4FF6F0731A40028217
:100D4000028A0A430282704782894FF2FF731A4077
:100D5000828182890A438281704721B1828942F06F
:100D60000202828104E082894FF6FD731A4082817B
:100D70007047028A4FF6DF731A400282028A0A43E2
:100D80000282704721B1028A42F48042028204E06A
:100D9000028A4BF6FF731A4002827047C1F30802C1
:100DA0008280704701468888C0F3080070478189B7
:100DB00041F0010181817047028BD2B20283028B24
:100DC00042EA012202837047028B02F47F420283CF
:100DD000028B0A430283704721B1828A42F02002CB
:100DE000828204E0828A4FF6DF731A408282704763
:100DF00021B1828A42F01002828204E0828A4FF698
:100E0000EF731A408282704721B1828A42F0080251
:100E1000828204E0828A4FF6F7731A40828270471A
:100E200021B1828942F40042828103E08289C2F3C7
:100E30000E028281704721B1828A42F4006282826E
:100E400004E0828A4FF2FF731A4082827047828ADE
:100E50004FF6FB731A408282828A0A43828270476D
:100E600021B1828A42F00202828204E0828A4FF635
:100E7000FD731A408282704702460020B1F5007F60
:100E800000D100BF13880B400BB1012000E000200F
:100E9000704701F40072B2F5007F00D100BFCA4371
:100EA0000280704770B50246002400230025002010
:100EB00040F66A16B14200D100BFC1F3421501F0FD
:100EC0001F03012606FA03F3012D02D19689334050
:100ED00006E0022D02D1168A334001E0968A3340A3
:100EE0000C12012606FA04F41688344013B10CB132
:100EF000012000E0002070BD10B50022002340F664
:100F00006A14A14200D100BF0A1201249440A3B286
:100F1000DC43048010BD0000003801400044004064
:100F200000480040004C00400050004000F074F8C1
:100F300000F0D0F800F0A4F900F021FE00F0E9FE86
:100F400000F00DFF03A001F033F900F013FF00BF24
:100F5000FEE700000D0AD2B0BBF02057462D4553E6
:100F600050383236362057694669C4A3BFE9B2E229
:100F7000CAD4C0FDB3CC0D0A00000000704700BF0A
:100F8000FEE700BFFEE700BFFEE700BFFEE77047D9
:100F90007047704710B500F0E4F810BD10B540F28E
:100FA00025511B48FFF77EFFD8B11948FFF7FAFE1D
:100FB000C4B21848B0F80004C0F30E0040F2FF318C
:100FC00088420EDA1349B1F80014C1F30E00411C37
:100FD000104AB2F8002461F30E020E49A1F8002471
:100FE0000C5440F224410A48FFF75CFF01280DD160
:100FF0000848B0F8000420F4004000F5004005491E
:10100000A1F800040248FFF7CDFEC4B210BD0000F5
:10101000004800403000002000B585B00121880361
:10102000FFF71CFD01210420FFF718FD4FF40070AD
:10103000ADF8100018208DF8130003208DF8120071
:1010400004A92248FFF74EFA4FF48060ADF8100073
:1010500004208DF8130004A91C48FFF743FA4FF44D
:10106000E13000900020ADF80400ADF80600ADF8C6
:101070000800ADF80C000C20ADF80A0069461448D1
:10108000FFF793FD01211248FFF71BFE05B000BDDD
:1010900070B504460D46E1B20D48FFF77FFE00BF74
:1010A00080210B48FFF7E8FE0028F9D0204670BDEC
:1010B00010B5044600BF20210548FFF7DDFE0028DB
:1010C000F9D00348FFF76EFE10BD00000008014094
:1010D0000038014030B527480068274AB0FBF2F1DC
:1010E000B1F1807F01D301201DE021F07F40401E3F
:1010F0004FF0E022506150170F22002807DA130743
:101100001D0E1E4B00F00F04241F1D5503E0130796
:101110001C0E1B4B1C5400BF00204FF0E0229061BE
:1011200007201061002008B100BFFEE74FF0E0206B
:10113000006920F001004FF0E021086130BD01B5E9
:101140001049009808604FF0E020006940F001006D
:101150004FF0E021086100BF0A4800680028FBD179
:1011600008BD0848006820B106480068401E0549CF
:10117000086070470000002040420F0018ED00E0BA
:1011800000E400E02800002008B54FF4A060FFF75D
:10119000DBF827208DF8000000208DF801008DF885
:1011A000020001208DF803006846FFF7D2F808BD61
:1011B00000B585B001218804FFF75DFC01210820FE
:1011C000FFF74CFC4FF48060ADF8100018208DF84C
:1011D000130003208DF8120004A9F848FFF782F9E4
:1011E0004FF40060ADF8100004208DF8130004A93E
:1011F000F248FFF777F94FF4E13000900020ADF8A6
:101200000400ADF80600ADF80800ADF80C000C20A5
:10121000ADF80A006946EA48FFF7C7FC012240F230
:101220002551E748FFF759FD012240F22441E448E7
:10123000FFF753FDFFF7A8FF0121E148FFF741FD4C
:1012400005B000BD08B501210820FFF707FC4020CC
:10125000ADF8000010208DF8030003208DF8020087
:101260006946D648FFF73EF901210820FFF7F6FB53
:101270008020ADF800006946D048FFF733F908BD7B
:1012800010B5FFF7DFFFFFF793FF8021CB48FFF793
:10129000D6F94021C948FFF7D4F910BD10B5802117
:1012A000C648FFF7CEF9C748FFF749FF8021C3487A
:1012B000FFF7C5F910BD2DE9F04106460C4615466D
:1012C0001F46C148B0F800046FF30E00BE49A1F8F4
:1012D00000043246BDA1BA4800F0BBFB1CB915B9E9
:1012E0000120BDE8F0814FF47A7107FB01F0FFF7B0
:1012F00026FF0020B449B1F80014C1F30E01B24A30
:1013000050541146B3A000F053FFB4B1ADB1214623
:10131000AD4800F00BFF08B1012000E0002040B90B
:101320002946A94800F002FF08B1012000E0002092
:1013300008B10120D5E70020D3E744B12146A248F7
:1013400000F0F4FE08B10120CBE70020C9E72946F0
:101350009D4800F0EBFE08B10120C2E70020C0E785
:1013600010B5002480219548FFF769F99A48FFF7E6
:10137000E6FE0CE04FF4FA73002298A198A0FFF764
:101380009AFF00B110BDFFF789FF601CC4B20A2CA0
:10139000F0DB00BFF6E710B5044624B1012C0AD0FB
:1013A000022C18D10FE040F6C4138EA28BA190A09E
:1013B000FFF781FF10BD40F6C4138AA287A18FA05A
:1013C000FFF779FFF6E740F6C41386A283A18EA04B
:1013D000FFF771FFEEE70020ECE730B59FB0044661
:1013E0000D462B4622468BA101A800F0F1FE41F2EA
:1013F0008833002279A101A8FFF75DFF1FB030BD3F
:1014000070B5A0B004460D4616462B46224686A16E
:1014100002A8009600F0DCFE4FF47A7300226FA160
:1014200002A8FFF748FF20B070BD10B586B0044693
:101430000CB1012000E00020024681A101A800F0CB
:10144000C7FE4FF4FA73002264A101A8FFF733FF2F
:1014500006B010BDF0B5B9B006460F4614461D469D
:10146000642120A800F057FE16B1012E10D107E02C
:101470003B4677A277A120A8009400F0A9FE08E0DF
:101480003B4678A273A120A8009400F0A1FE00E0E2
:1014900000BF00BF052D06DA20AB2A4672A102A8C4
:1014A00000F096FE04E020AA74A102A800F090FECD
:1014B0004FF47A6375A249A102A8FFF7FCFE39B088
:1014C000F0BD70B5BCB004460D461646FCB12B46C7
:1014D000012272A11EA800F07BFE324674A168466C
:1014E00000F076FE4FF4FA7300223CA11EA8FFF72D
:1014F000E2FE50B14FF4FA73002238A16846FFF7BC
:10150000DAFE10B101203CB070BD0020FBE72B4695
:10151000002262A11EA800F05BFE4FF4FA730022C5
:101520002EA11EA8FFF7C7FEEDE710B54FF4FA7322
:1015300000222AA162A0FFF7BEFEA0B164A122484A
:1015400000F0F4FD08B1022010BD64A11E4800F0B7
:10155000EDFD08B10320F7E763A11B4800F0E6FDAD
:1015600008B10420F0E70020EEE710B500244FF4A6
:10157000FA73002219A152A0FFF79DFE00281CD08B
:101580005CA1114800F0D2FD10B144F0010401E06B
:1015900024F001045BA10C4800F0C8FD10B144F038
:1015A000020401E024F002045AA1074800F0BEFD45
:1015B00010B144F00404B7E0B4E0C9E0000C01400D
:1015C0000048004020A107003000002025730D0ACC
:1015D000000000002573000040420F004F4B000048
:1015E000415400006E6F206368616E676500000003
:1015F00041542B43574D4F44453D310041542B43FB
:10160000574D4F44453D320041542B43574D4F44B5
:10161000453D330041542B43574A41503D222573E9
:10162000222C22257322000041542B435753415052
:101630003D222573222C222573222C312C25640077
:1016400041542B4349504D55583D2564000000003E
:1016500054435000222573222C222573222C2573FB
:10166000000000005544500041542B43495053544E
:101670004152543D25642C257300000041542B43F6
:10168000495053544152543D25730000414C52453A
:10169000415920434F4E4E454354000041542B4383
:1016A00049505345525645523D25642C2573000040
:1016B00041542B43495053544F3D257300000000C3
:1016C00041542B434950535441545553000000009A
:1016D0005354415455533A320D0A00005354415467
:1016E00055533A330D0A00005354415455533A347C
:1016F0000D0A00002B4349505354415455533A307E
:101700002C0000002B4349505354415455533A3157
:101710002C0000002B4349505354415455533A3246
:101720002C00000024F004047FA1834800F0FEFC9C
:1017300010B144F0080401E024F008047FA17E48C1
:1017400000F0F4FC10B144F0100401E024F01004A7
:10175000204610BD2DE9F04105460F464FF4FA73BF
:101760000022AFF2881179A0FFF7A5FD7AA1724897
:1017700000F0DCFC06460EB1B61D02E00020BDE81C
:10178000F081002409E0305D2855285D222802D12F
:101790000020285503E0601CC4B2BC42F3DB00BF4C
:1017A0000120ECE710B54FF4FA730022AFF2D41128
:1017B0006BA0FFF780FD08B9002010BD4FF4FA734D
:1017C0006BA2AFF2E8116BA0FFF775FDF5E710B55E
:1017D0006B48FFF7B4FC6BA16B4800F03AF96B481B
:1017E000FFF7ADFC10BD2DE9F04186B007460C4671
:1017F00015461E464FF0000847B12246AFF22C2195
:10180000614800F026F94FF001081BE0052E06DACA
:10181000AB1C32465EA101A800F0DAFC04E0AA1C71
:1018200060A101A800F0D4FC6423002261A101A8FA
:10183000FFF741FD4FF4FA7300225FA12046FFF746
:101840003AFD8046404606B0BDE8F08170B50446DA
:1018500000253948B0F800046FF30E003649A1F8AE
:1018600000040846B0F8000420F40040A1F8000489
:1018700000BF3148B0F80004C00B0028F9D00020A8
:101880002D49B1F80014C1F30E012B4A50540CB18C
:10189000154605E04AA1284800F048FC00B1264D55
:1018A000284670BD2DE9F041054664230022AFF2C1
:1018B000D42145A0FFF7FFFC1EA11F4800F036FC15
:1018C0008046B8F1000F09D042A11B4800F02EFC61
:1018D00000F10B07A8EB0700C6B202E00020BDE84C
:1018E000F081002403E0385D2855601CC4B2B44286
:1018F000F9DB0020A8550120F1E710B588B00446B7
:10190000224637A1684600F063FC41F2883300228A
:10191000AFF238316846FFF7CEFC10B1012008B0B5
:1019200010BD0020FBE700002B43495053544154A5
:1019300055533A332C000000300000202B4349500F
:101940005354415455533A342C00000041542B4316
:101950004946535200000000415049502C220000DB
:1019600041542B4349504D4F44453D310000000048
:101970003E00000041542B43495053454E44000063
:1019800040420F002B2B2B000048004020A10700F5
:1019900041542B43495053454E443D25642C256406
:1019A0000000000041542B43495053454E443D250F
:1019B000640000003E20000053454E44204F4B0081
:1019C0002B4950440000000041542B43574C4946DA
:1019D0000000000041542B43574C49460D0D0A00AE
:1019E00041542B43495041503D22257322000000B1
:1019F000F0B503460D461646002729460A2E03D0A9
:101A0000002008702846F0BD33B9302001F8010BE2
:101A1000002008702846F6E7002B03DA2D2001F895
:101A2000010B5B4242F210720DE093FBF2F404B939
:101A300037B104F1300001F8010B04FB1233012728
:101A40000A2092FBF0F2002AEFDC00200870284602
:101A5000D9E70FB470B586B006460CA8019073E0C4
:101A60000B9800785C281CD10B98401C0B900078D8
:101A70006E2809D072280FD10D213046FFF78EF95C
:101A80000B98401C0B900BE00A213046FFF786F9BB
:101A90000B98401C0B9003E00B98401C0B9000BF70
:101AA0004BE00B980078252840D10B98401C0B90F8
:101AB0000078642818D0732833D1019810C8019099
:101AC0000BE021783046FFF769F900BF80213046EE
:101AD000FFF7D2F90028F9D0641C20780028F0D153
:101AE0000B98401C0B9020E0019820C801900A221E
:101AF00002A92846FFF77CFF02AC0BE021783046B4
:101B0000FFF74CF900BF80213046FFF7B5F90028F8
:101B1000F9D0641C20780028F0D10B98401C0B9061
:101B200003E00B98401C0B9000BF06E00B9810F8E8
:101B3000011B0B903046FFF731F900BF8021304682
:101B4000FFF79AF90028F9D00B980078002887D180
:101B500006B070BC5DF814FB08B501212020FEF72B
:101B60007DFF4020ADF8000010208DF80300032019
:101B70008DF8020069465148FEF7B4FC08BD10B567
:101B8000FFF7EAFF40214D48FEF759FD10BD08B5AB
:101B90004020ADF8000048208DF803006946474812
:101BA000FEF7A0FC08BD08B54020ADF800001020ED
:101BB0008DF8030003208DF8020069463F48FEF7C8
:101BC00091FC08BD70B50025002424E000BF402131
:101BD0003A48FEF71AFD0028F9D02820FFF7AFFA9F
:101BE00040213648FEF711FD01280DD100BF4021EC
:101BF0003248FEF70AFD0128F9D0C4F1070101209F
:101C00008840C0B2054304E0C4F1070101208840C8
:101C10008543601CC4B2082CD8DB284670BD10B5C3
:101C20000446FFF7C0FF40212448FEF70AFD44F2B6
:101C30005060FFF784FA40212048FEF700FD1E2087
:101C4000FFF77DFAFFF7A3FF40211C48FEF7DDFCFC
:101C500080BB00BF40211948FEF7D7FC0028F9D00F
:101C600000BF40211548FEF7D0FC0128F9D0FFF74E
:101C7000A9FF2070FFF7A6FF6070FFF7A3FFA07019
:101C8000FFF7A0FFE070FFF79DFF2071FFF78BFFCC
:101C900040210A48FEF7D3FC207861780844A178F7
:101CA0000844E17808442179884201D1012010BD1F
:101CB0000020FCE7FFE70020F9E7000000140140E6
:101CC00008B501210820FEF7C9FE2020ADF800006C
:101CD00010208DF8030003208DF802006946154896
:101CE000FEF700FC01210820FEF7B8FE0120ADF848
:101CF000000069460F48FEF7F5FB01210820FEF7BA
:101D0000ADFE0220ADF8000069460A48FEF7EAFB86
:101D100008BD10B5FFF7D4FF20210648FEF78FFC61
:101D200001210448FEF78BFC02210248FEF787FCE4
:101D300010BD0000000C014008B501211020FEF785
:101D40008DFE0120ADF8000010208DF80300032067
:101D50008DF8020069460648FEF7C4FB08BD10B5C1
:101D6000FFF7EAFF01210248FEF76BFC10BD0000FF
:101D700000100140A2B04FF0000B002021908146DE
:101D80008246642108A800F0C6F999A000F010FA74
:101D900040219E48FEF753FCFFF7E2FA0120FFF7CF
:101DA000FAFA00BF9AA0FFF7A8FD0028FAD000BFFA
:101DB00000229BA19DA0FFF723FB0028F8D0012063
:101DC000FFF733FB00BF9CA29DA10120FFF779FB29
:101DD0000028F8D0142108A8FFF7BCFC98A308AA93
:101DE00092A1994800F0E4F99848B0F800046FF324
:101DF0000E009649A1F800040846B0F8000420F44B
:101E00000040A1F80004F2E09048B0F80004C00BD4
:101E10000028F8D0002240F225518D48FEF75DFFE2
:101E200000208A49B1F80014C1F30E01874A5054CA
:101E300088A1104600F07AF9040057D0257A312D98
:101E400004D0322D19D0332D45D12DE0A57A302D77
:101E500002D0312D0ED106E020216C48FEF7EFFBB9
:101E60004FF0000B07E020216848FEF7EAFB4FF037
:101E7000010B00E000BF00BF2EE0A57A302D02D09C
:101E8000312D0ED106E001216048FEF7D8FB00207D
:101E9000219007E001215D48FEF7D3FB012021904E
:101EA00000E000BF00BF17E0A57A302D02D0312D31
:101EB0000ED106E002215548FEF7C1FB4FF00009A4
:101EC00007E002215148FEF7BCFB4FF0010900E09A
:101ED00000BF00BF00E000BF00BFCDF800905A4631
:101EE0005FA108A8219B00F073F957E063A1574850
:101EF00000F01CF904001BD0E57A302D02D0312D02
:101F00000ED106E001216048FEF79BFB4FF0000A6E
:101F100007E001215C48FEF792FB4FF0010A00E068
:101F200000BF00BF524659A108A800F051F935E0A2
:101F30005DA1464800F0FAF8040013D05DA14348C3
:101F400000F0F4F806000DD0B44227D2301B0C305C
:101F5000C7B23A46214608A800F0C4F8002008A9F4
:101F6000C8551BE057A1394800F0E0F8B0B106A809
:101F7000FFF755FE9DF819009DF818109DF81B20DD
:101F8000CDE9040ACDE902219DF81A00CDE90090BF
:101F90005A46514908A8219B00F01AF94FA12B4835
:101FA00000F0C4F804000DD06079303800F0FF086C
:101FB00008A800F0CDF84346024608A90590002085
:101FC000FFF711FC2148B0F800046FF30E001F4921
:101FD000A1F800040846B0F8000420F40040A1F87D
:101FE0000004012240F225511948FEF776FE0BE766
:101FF0000D0AD5FDD4DAC5E4D6C320455350383296
:102000003636202E2E2E2E2E2E0D0A00000C0140CC
:102010003139322E3136382E3132332E31363900C5
:1020200077696C64666972650000000042696E67DA
:1020300068756F4C696E6B003138303000000000FD
:102040003830383000000000DC2300083000002069
:1020500000480040434D445F4C45445F0000000091
:10206000434D445F4C45445F25645F25645F2564B0
:102070005F454E444C45445F454E4400434D445FEC
:1020800042555A5A45525F0000100140434D445F8B
:1020900042555A5A45525F25645F454E4442555A4F
:1020A0005A45525F454E4400434D445F554152549A
:1020B0005F0000005F454E44554152545F454E4419
:1020C00000000000434D445F524541445F414C4C89
:1020D0005F454E44000000004C2400082B4950444A
:1020E0002C00000040EA01039B0703D009E008C967
:1020F000121F08C0042AFAD203E011F8013B00F8CD
:10210000013B521EF9D27047D2B201E000F8012B18
:10211000491EFBD270470022F6E710B513460A4667
:1021200004461946FFF7F0FF204610BD30B50546BE
:102130002A460B4612F8010B13F8014B08B1A042D6
:10214000F8D01CB1002802D06D1CF1E7284630BD44
:10215000421C10F8011B0029FBD1801A704730B5D2
:102160000B46014600202022012409E021FA02F555
:102170009D4205D303FA02F5491B04FA02F52844EF
:10218000151EA2F10102F1DC30BD0000064C074D26
:1021900006E0E06840F0010394E807009847103437
:1021A000AC42F6D3FDF7C8FF98240008B824000815
:1021B0000FB4054B10B503A9044A029800F02CF89F
:1021C00010BC5DF814FB0000911000082C000020EA
:1021D0000FB4084B10B504A902AA039800F01CF82C
:1021E000044602A9002000F0F3F8204610BC5DF878
:1021F00014FB0000D123000802E008C8121F08C128
:10220000002AFAD170477047002001E001C1121F77
:10221000002AFBD1704700002DE9FF4F8BB09A4692
:102220000F460546002606E025280BD052460D999C
:1022300090476D1C761C28780028F5D10FB03046E9
:10224000BDE8F08F0024A0460122604900E004436D
:1022500015F8013F203B02FA03F00842F7D1287835
:102260002E2817D115F8010F44F004042A280ED0A7
:102270006FF02F022878A0F1300109290AD808EB65
:10228000880102EB410100EB01086D1CF2E757F8F1
:10229000048B6D1C287869283ED006DC0028CDD040
:1022A00063280BD0642804D136E0732810D0752839
:1022B0004BD052460D999047761C85E017F8040BD9
:1022C0008DF8000000208DF80100E946012003E0B0
:1022D00057F8049B4FF0FF3061074FF0000401D422
:1022E0000AE0641C44450DDA8442FADB19F8041054
:1022F0000029F6D106E0641C8442FCDB19F80410C6
:102300000029F8D1264404E019F8010B52460D9932
:102310009047641EF8D257E001CF4FF00A0B002817
:1023200002DA40422D2102E0210504D52B218DF84F
:102330002410012103E0E10705D02021F7E70DF18A
:10234000200908910CE00021F9E701CF4FF00A0BBA
:10235000F9E75946FFF703FF01F1300209F8012DB3
:102360000028F6D1ADEB090000F1200B600701D485
:102370004FF00108D84502DDA8EB0B0000E000207B
:102380008046002406E009A85246005D0D9990475A
:10239000641C761C08988442F5DB04E03020524629
:1023A0000D999047761CB8F10001A8F10108F5DC01
:1023B00005E019F8010B52460D999047761CBBF1C8
:1023C0000001ABF1010BF4DC6D1C34E709280100BE
:1023D0000A68531C0B601070704700000D0AB1BEF4
:1023E000C4A3BFE957494649CEAA2573A3ACC3DCB1
:1023F000C2EBBFAAB7C50D0A415020495020CEAA52
:10240000A3BA2573A3ACBFAAC6F4B5C4B6CBBFDAD2
:10241000CEAAA3BA25730D0ACAD6BBFACDF8C2E775
:10242000D6FACAD6C1ACBDD3B8C320495020BACD64
:10243000B6CBBFDAA3ACD7EEB6E0BFC9C1ACBDD353
:1024400035B8F6BFCDBBA7B6CB0D0A00434D445FF0
:102450004C45445F25645F25645F25645F454E44B9
:102460004C45445F44485431315F25642E25645FF8
:1024700025642E25645F454E4444485431315F4203
:10248000555A5A45525F25645F454E4442555A5A43
:1024900045525F454E440000B8240008000000206B
:1024A00030000000F8210008E82400083000002077
:1024B000080800000822000800A24A0400000000EA
:1024C00000000000010203040607080900000000E4
:1024D00001020304010203040607080902040608B6
:0824E0000000000000000000F4
:0400000508000131BD
:00000001FF
