:020000040800F2
:100000006808002045010008791A00087B1A0008DA
:100010007F1A0008831A0008871A000800000000F1
:100020000000000000000000000000008B1A000823
:100030008D1A0008000000008F1A0008911A0008AD
:100040005F0100085F0100085F0100085F01000810
:100050005F0100085F0100085F0100085F01000800
:100060005F0100085F0100085F0100085F010008F0
:100070005F0100085F0100085F0100085F010008E0
:100080005F0100085F0100085F0100085F010008D0
:100090005F0100085F0100085F0100085F010008C0
:1000A0005F0100085F0100085F0100085F010008B0
:1000B0005F0100085F0100085F0100085F010008A0
:1000C0005F0100085F0100085F0100085F01000890
:1000D0005F0100085F0100085F010008991A00082D
:1000E0005F0100085F0100085F0100085F01000870
:1000F0005F0100085F0100085F0100085F01000860
:100100005F0100085F0100085F0100085F0100084F
:100110005F0100085F0100085F0100085F0100083F
:100120005F0100085F0100085F0100085F0100082F
:10013000DFF80CD003F046FA0048004739120008F7
:10014000680800200648804706480047FEE7FEE7AB
:10015000FEE7FEE7FEE7FEE7FEE7FEE7FEE7FEE777
:1001600047020008310100080CB500200190009002
:100170006C48006840F480306A49086000BF6948F4
:10018000006800F4003000900198401C0190009835
:1001900018B90198B0F5A06FF1D16248006800F479
:1001A000003010B10120009001E000200090009884
:1001B000012843D15C48006840F010005A490860AB
:1001C0000846006820F0030008600846006840F018
:1001D0000200086053484068524948600846406839
:1001E00048600846406840F48060486008464068BF
:1001F00020F47C1048600846406840F4E8104860ED
:100200000846006840F08070086000BF45480068FC
:1002100000F000700028F9D04248406820F0030048
:10022000404948600846406840F00200486000BF0E
:100230003C48406800F00C000828F9D10CBD10B50E
:10024000FFF792FF10BD10B53648006840F001007E
:1002500034490860084640683449084031494860DC
:1002600008460068324908402E4908600846006880
:1002700020F4802008600846406820F4FE004860B2
:100280004FF41F008860FFF7DAFF4FF00060294944
:10029000086010BD10B5002100200022214B5B68D2
:1002A00003F00C0121B1042906D0082928D107E068
:1002B000214B224C236027E01F4B204C236023E07E
:1002C000184B5B6803F47010164B5B6803F48032C4
:1002D000022303EB904022B9194B4343174C236090
:1002E0000DE0104B5B6803F4003323B1144B434320
:1002F000124C236003E0104B4343104C236003E097
:100300000D4B0E4C236000BF00BF064B5B68C3F370
:1003100003130C4CE15C094B1B68CB40074C23607A
:1003200010BD000000100240002002400000FFF855
:10033000FFFFF6FE08ED00E000127A00000000204A
:1003400000093D000400002031490143314A116099
:10035000704770B5002100230F22C47804B32D4CE0
:10036000246804F4E064C4F5E064210AC1F10403E4
:10037000CA40447804FA03F1847814402143090107
:10038000254C0678A155047804F01F050124AC40E3
:1003900005786D11AD0005F1E025C5F8004109E0D3
:1003A000047804F01F050124AC401C4D067876113A
:1003B00045F8264070BD1A4A0A400243154B1B1FE0
:1003C0001A60704739B1134A121D12680243114B6B
:1003D0001B1D1A6006E00F4A121D126882430D4B66
:1003E0001B1D1A607047042808D14FF0E0210969ED
:1003F00041F004014FF0E022116107E04FF0E021ED
:10040000096921F004014FF0E022116170470000FA
:100410000000FA050CED00E000E400E080E100E0FF
:1004200080FFFF1F10B50446CC48844208D101214B
:10043000042000F02DFB0021042000F029FB46E001
:10044000C748844208D10121082000F021FB002187
:10045000082000F01DFB3AE0C248844208D1012187
:10046000102000F015FB0021102000F011FB2EE001
:10047000BD48844208D10121202000F009FB002161
:10048000202000F005FB22E0B848844208D1012179
:10049000402000F0FDFA0021402000F0F9FA16E0BB
:1004A000B348844208D10121802000F0F1FA0021F4
:1004B000802000F0EDFA0AE0AE48844207D1012125
:1004C000801500F0E5FA0021A01500F0E1FA10BD5A
:1004D00010B50121084600F0DBFA0021012000F0F0
:1004E000D7FA10BD2DE9F041024600250026002074
:1004F00000230024002791F803C00CF00F0591F8A9
:1005000003C00CF0100CBCF1000F03D091F802C036
:100510004CEA050591F800C0BCF1000F31D0146819
:1005200000202BE04FF0010C0CFA00F3B1F800C0F2
:100530000CEA03069E4220D183004FF00F0C0CFA08
:1005400003F7BC4305FA03FC4CEA040491F803C02A
:10055000BCF1280F06D14FF0010C0CFA00FCC2F8D8
:1005600014C00AE091F803C0BCF1480F05D14FF068
:10057000010C0CFA00FCC2F810C0401C0828D1D3B2
:100580001460B1F800C0BCF1FF0F34DD54680020E6
:100590002EE000F1080C4FF0010808FA0CF3B1F856
:1005A00000C00CEA03069E4221D183004FF00F0CDD
:1005B0000CFA03F7BC4305FA03FC4CEA040491F877
:1005C00003C0BCF1280F05D100F1080C08FA0CF8A3
:1005D000C2F8148091F803C0BCF1480F07D100F1B4
:1005E000080C4FF0010808FA0CF8C2F81080401C03
:1005F0000828CED35460BDE8F0814FF6FF7101802A
:10060000022181700421C170704702460020936866
:100610000B400BB1012000E00020704701468868C4
:1006200080B2704702460020D3680B400BB1012016
:1006300000E0002070470146C86880B27047016141
:100640007047416170470AB1016100E04161704744
:10065000C16070474FF480320A43826181618261D8
:1006600082698269704702460020434B18684FF642
:100670008073184040EA021008433F4B18607047EF
:100680003E49C8617047F0B50A46002300240021A6
:10069000002500F00046B6F1004F02D1364EF16958
:1006A00001E0354E7168C0F3034583B200F4401693
:1006B000B6F5401F08D121F070612F4E766826F004
:1006C00070662D4F7E6012E000F48016B6F5801F34
:1006D00006D1032606FA05F4A14341F0706106E055
:1006E000460D360103FA06F6B14341F0706122B1BE
:1006F000460D360103FA06F6314300F00046B6F126
:10070000004F02D11C4EF16101E01B4E7160F0BD43
:1007100030B500228B071C0F0F2303FA04F2164B8F
:1007200008338C1053F824309343134C08348D1045
:1007300044F8253023468C1053F824308C07240FBE
:1007400000FA04F423430C4C08348D1044F825308F
:1007500030BD0A49DC3108607047000000080140E4
:10076000000C01400010014000140140001801403D
:10077000001C014000200140000001400000204218
:10078000DF48006840F00100DD4908600846406825
:10079000DC490840DA49486008460068DA49084000
:1007A000D74908600846006820F4802008600846A1
:1007B000406820F4FE0048604FF41F0088607047D6
:1007C000CF49096821F48031CD4A1160114609688A
:1007D00021F480211160B0F5803F03D0B0F5802F67
:1007E0000ED106E0C649096841F48031C44A11605F
:1007F00007E0C349096841F4A021C14A116000E043
:1008000000BF00BF704710B5014600220023002042
:100810004A11012A02D1BA4C236806E0022A02D109
:10082000B74C236A01E0B64C636A01F01F02012451
:1008300094401C400CB1012000E0002010BD38B5F0
:10084000002000900024002500BF3120FFF7DBFFCF
:1008500005460098401C00900098B0F5A06F01D0AC
:10086000002DF2D03120FFF7CEFF08B1012400E0C7
:100870000024204638BD01460020A14A106820F01F
:10088000F80040EAC10010607047A0490860704756
:10089000024600209A4B586820F47C1042EA01037B
:1008A0001843974B5860704798490866704701464F
:1008B0000020934A506820F00300084350607047BE
:1008C0008F48406800F00C007047014600208C4AB9
:1008D000506820F0F0000843506070470146002047
:1008E000874A506820F4E060084350607047014632
:1008F0000020834A506820F4605040EAC1005060F4
:10090000704729B17E4A527A02437D4B5A7204E005
:100910007B4A527A82437A4B5A7270477B49D8316C
:100920000860704701460020754A506820F4404036
:100930000843506070470021714A20321170704A9C
:1009400082F82010012802D004280AD104E00121F5
:100950006B4A2032117005E00521694A203211707E
:1009600000E000BF00BF70476949086070476449F4
:10097000096A0143624A1162704765494439086057
:10098000704730B500210022002400235C4D6D68C3
:1009900005F00C0121B1042905D0082923D105E077
:1009A0005C4D056022E05B4D05601FE0544D6D68B5
:1009B00005F47012524D6D6805F48034022505EB84
:1009C00092421CB9544D554305600BE04C4D6D6887
:1009D00005F400351DB1504D5543056002E04D4D05
:1009E0005543056002E04B4D056000BF00BF444D1C
:1009F0006D6805F0F0010909484D6B5C0568DD4044
:100A000045603F4D6D6805F4E061090A434D6B5C3C
:100A10004568DD4085603A4D6D6805F46051C90A4E
:100A20003E4D6B5C4568DD40C560354D6D6805F435
:100A30004041890B3A4D6B5CC568B5FBF3F5056128
:100A400030BD29B12E4A526902432D4B5A6104E050
:100A50002B4A526982432A4B5A61704729B1284A6E
:100A600092690243264B9A6104E0254A92698243C7
:100A7000234B9A61704729B1214AD2690243204B26
:100A8000DA6104E01E4AD26982431D4BDA61704785
:100A900029B11B4AD2680243194BDA6004E0184AB4
:100AA000D2688243164BDA60704729B1144A126942
:100AB0000243134B1A6104E0114A12698243104B3E
:100AC0001A61704712494039086070470F49C8647D
:100AD00070470B49C87170470948406A40F0807000
:100AE00007494862704701460020054A92680A405B
:100AF0000AB1012000E00020704701498872704768
:100B0000001002400000FFF8FFFFF6FE0000424226
:100B10008004424200127A0000093D0014000020C7
:100B20002400002010B50446BE48844208D10121AB
:100B30008014FFF7ADFF0021A014FFF7A9FF16E016
:100B4000B948844208D101210014FFF7AEFF00210B
:100B50002014FFF7AAFF0AE0B448844207D101211C
:100B6000C013FFF7A2FF0021E013FFF79EFF10BDA7
:100B700010B50022028802F441520B884C882343AE
:100B80008C882343CC8823430C8923434C892343FB
:100B90008C892343CC8923431A430280838B4FF2F1
:100BA000FF74234083830B8A038210BD2DE9F04F2D
:100BB00085B005460C464FF0000902274FF00008AB
:100BC0004FF0010B0026B246A88B4FF240010840BF
:100BD000A88302202884B5F81C90A068022801D1BF
:100BE00000BF38E0A08810B94FF0010B01E04FF0D2
:100BF000020B8D48854200D100E000BF6846FFF738
:100C0000C0FEDDF800A0E088B0F5007F0AD14FEA11
:100C10001A2000EB80004000A168B0FBF1F0401DFD
:100C200086B20BE04FEA4B10BAFBF0F000EB80000D
:100C30004000A168B0FBF1F0401D86B20A20B6FB6F
:100C4000F0F606F00108A6EB0800C0F34F074FF6D8
:100C5000FF7000EA0828022F01DBFF2F02DD0227C8
:100C60004FF00008E08840EA080038432884A08854
:100C7000A1890843618808432188084340F4006043
:100C800040EA0909A5F81C9005B0BDE8F08F0021E5
:100C9000018041808180C180018141818181C18148
:100CA0000721018270470021018041808180C1803D
:100CB0000221816000218181704721B1028842F0C8
:100CC0004002028004E002884FF6BF731A4002809F
:100CD000704721B1828B42F48062828304E0828B70
:100CE0004FF6FF331A408283704730B5002400234B
:100CF0000C110125A540ABB21AB185881D43858032
:100D000002E085889D43858030BD1AB183880B43FE
:100D1000838002E083888B438380704781817047A2
:100D20000146888970474FF6FF62914204D00288DD
:100D300042F48072028004E002884FF6FF631A409A
:100D40000280704721B1828842F00402828004E070
:100D500082884FF6FB731A408280704702884FF2F8
:100D6000FF731A40028002880A430280704701889C
:100D700041F480510180704721B1028842F4005251
:100D8000028004E002884DF6FF731A40028070472B
:100D900002460020012901D0108B00E0908A7047A4
:100DA0000146088A7047B1F5804F04D1028842F4A9
:100DB0008042028004E002884BF6FF731A400280F2
:100DC00070470246002013890B400BB1012000E060
:100DD00000207047CA4302817047F0B502460020E8
:100DE00000240023002501F00F070126BE40B4B205
:100DF0000B1101269E40B3B2968806EA03051689B8
:100E0000264016B10DB1012000E00020F0BD10B564
:100E1000002201F00F040123A3409AB2D3430381BF
:100E200010BD00000030014000380040003C004090
:100E300010B50446FB48844209D101218803FFF71D
:100E400027FE00214FF48040FFF722FE32E0F648F3
:100E5000844209D101214804FFF727FE00214FF405
:100E60000030FFF722FE25E0F048844209D101213D
:100E70008804FFF71AFE00214FF48020FFF715FECB
:100E800018E0EB48844209D10121C804FFF70DFEA8
:100E900000214FF40020FFF708FE0BE0E5488442F4
:100EA00008D101210805FFF700FE00214FF4801052
:100EB000FFF7FBFD10BD2DE9F04786B005460E4655
:100EC0000024A24600BFA1460027B08900B100BFA0
:100ED0002F462C8A4CF6FF700440F08804432C8285
:100EE000AC894EF6F3100440B0883189084371890B
:100EF00008430443AC81AC8A4FF6FF400440B089FC
:100F00000443AC8201A8FFF73CFDC648874202D1EA
:100F1000DDF810A001E0DDF80CA0A88900F4004085
:100F200040B10AEBCA0000EB0A1031684900B0FB7F
:100F3000F1F807E00AEBCA0000EB0A1031688900FB
:100F4000B0FBF1F86420B8FBF0F004012009642143
:100F500001FB1089A88900F4004040B1322000EB69
:100F6000C900B0FBF1F000F00700044308E03220B4
:100F700000EB09106421B0FBF1F000F00F00044316
:100F80002C8106B0BDE8F0874FF4165101600021B6
:100F90008180C18001810C214181002181817047C4
:100FA00010B502460020108A4FF2FF0318400B884C
:100FB0004C8823438C882343CC88234318431082D6
:100FC00010BD0021018041808180C180704721B126
:100FD000828942F40052828104E082894DF6FF73D7
:100FE0001A4082817047F0B5034600240026002590
:100FF000002040F66A17B94200D100BF1846C1F37D
:10100000421401F01F06012707FA06F5012C01D151
:101010000C3004E0022C01D1103000E014301AB181
:1010200007682F43076002E00768AF430760F0BD21
:101030001AB1838A0B43838202E0838A8B438382C3
:101040007047028A4FF6F0731A400282028A0A43FE
:101050000282704782894FF2FF731A40828182892F
:101060000A438281704721B1828942F00202828163
:1010700004E082894FF6FD731A4082817047028A2C
:101080004FF6DF731A400282028A0A4302827047D7
:1010900021B1028A42F48042028204E0028A4BF6C5
:1010A000FF731A4002827047C1F3080282807047C2
:1010B00001468888C0F308007047818941F001012A
:1010C00081817047028BD2B20283028B42EA0122F5
:1010D00002837047028B02F47F420283028B0A4331
:1010E0000283704721B1828A42F02002828204E0AA
:1010F000828A4FF6DF731A408282704721B1828A5A
:1011000042F01002828204E0828A4FF6EF731A40A6
:101110008282704721B1828A42F00802828204E012
:10112000828A4FF6F7731A408282704721B1828912
:1011300042F40042828103E08289C2F30E0282817E
:10114000704721B1828A42F40062828204E0828A7E
:101150004FF2FF731A4082827047828A4FF6FB7308
:101160001A408282828A0A438282704721B1828A2F
:1011700042F00202828204E0828A4FF6FD731A4036
:101180008282704702460020B1F5007F00D100BF87
:1011900013880B400BB1012000E00020704701F4E0
:1011A0000072B2F5007F00D100BFCA4302807047D1
:1011B00070B50246002400230025002040F66A1680
:1011C000B14200D100BFC1F3421501F01F03012657
:1011D00006FA03F3012D02D19689334006E0022D71
:1011E00002D1168A334001E0968A33400C12012660
:1011F00006FA04F41688344013B10CB1012000E063
:10120000002070BD10B50022002340F66A14A142F0
:1012100000D100BF0A1201249440A3B2DC43048031
:1012200010BD00000038014000440040004800406C
:10123000004C00400050004001F01EFA01F0C2F9DD
:1012400000F004FD01F0E1F801F0A9F900F075FCEF
:1012500001F0E0FE01F06EFA01F040FB01F0A6FCA7
:101260000F4801F0E4F94FF6FF730EA2C021802071
:1012700000F062FB4FF6FF730EA24021084600F01B
:101280005BFB10A002F0D0F900F0E4F801F0A3FB42
:10129000002001F0ADFB01F0B6FB00BFFEE700004F
:1012A000A086010048656C6C6F20576F726C642ECD
:1012B0002E2E0000BBAACEAAB5E7D7D3B1EAC7A9A4
:1012C000000000000D0A5B424952445D2057462D44
:1012D000455350383236362057694669C4A3BFE9B2
:1012E000B2E2CAD42E2E2E0D0A000000F0B503463D
:1012F0000D461646002729460A2E03D00020087006
:101300002846F0BD33B9302001F8010B00200870E9
:101310002846F6E7002B03DA2D2001F8010B5B428B
:1013200042F210720DE093FBF2F404B937B104F10C
:10133000300001F8010B04FB123301270A2092FB55
:10134000F0F2002AEFDC002008702846D9E70FB43D
:1013500070B586B006460CA8019073E00B98007833
:101360005C281CD10B98401C0B9000786E2809D08B
:1013700072280FD10D213046FFF796FE0B98401CC6
:101380000B900BE00A213046FFF78EFE0B98401CB5
:101390000B9003E00B98401C0B9000BF4BE00B98A8
:1013A0000078252840D10B98401C0B9000786428C9
:1013B00018D0732833D1019810C801900BE0217820
:1013C0003046FFF771FE00BF80213046FFF7DAFE9E
:1013D0000028F9D0641C20780028F0D10B98401C1C
:1013E0000B9020E0019820C801900A2202A928460B
:1013F000FFF77CFF02AC0BE021783046FFF754FE8C
:1014000000BF80213046FFF7BDFE0028F9D0641CE4
:1014100020780028F0D10B98401C0B9003E00B982B
:10142000401C0B9000BF06E00B9810F8011B0B90BE
:101430003046FFF739FE00BF80213046FFF7A2FE9D
:101440000028F9D00B980078002887D106B070BC2E
:101450005DF814FBA2B04FF0000B002021908146F4
:101460008246642108A802F058F89C499CA002F02A
:10147000DBF84FF40051A348FFF7E1F800F05AFC05
:10148000012000F073FC00BF9FA000F026FF0028A1
:10149000FAD000BF0022A0A1A2A000F09CFC00286E
:1014A000F8D0012000F0ACFC00BFA1A2A2A1012055
:1014B00000F0F2FC0028F8D0142108A800F034FE57
:1014C0009DA308AA97A19E4802F0AEF89D48B0F8E7
:1014D00000046FF30E009B49A1F800040846B0F821
:1014E000000420F40040A1F80004F6E09548B0F8AC
:1014F0000004C00B0028F8D0002240F22551924889
:10150000FFF771FD00208F49B1F80014C1F30E01FF
:101510008C4A505471498DA002F086F88EA18948FA
:1015200002F006F8041E57D0257A312D04D0322D52
:1015300019D0332D45D12DE0A57A302D02D0312D93
:101540000ED106E020218748FFF779F84FF0000B15
:1015500007E020218348FFF774F84FF0010B00E00B
:1015600000BF00BF2EE0A57A302D02D0312D0ED164
:1015700006E001217B48FFF762F80020219007E098
:1015800001217848FFF75DF80120219000E000BFBD
:1015900000BF17E0A57A302D02D0312D0ED106E024
:1015A00002217048FFF74BF84FF0000907E00221D5
:1015B0006C48FFF746F84FF0010900E000BF00BF9C
:1015C00000E000BF00BFCDF800905A4666A108A811
:1015D000219B02F039F857E06AA15A4801F0A8FFB0
:1015E000041E1BD0E57A302D02D0312D0ED106E03D
:1015F00001216748FFF725F84FF0000A07E00121B5
:101600006348FFF71CF84FF0010A00E000BF00BF7D
:10161000524660A108A802F017F835E064A14948D5
:1016200001F086FF041E13D064A1464801F080FF3C
:10163000061E0DD0B44227D2301B0C30C7B23A463A
:10164000214608A801F050FF002008A9C8551BE05A
:101650005EA13C4801F06CFFB0B106A800F025FF88
:101660009DF819009DF818109DF81B20CDE9040A7B
:10167000CDE902219DF81A00CDE900905A4658495B
:1016800008A8219B01F0E0FF56A12E4801F050FF71
:10169000041E0DD06079303800F0FF0808A801F072
:1016A00059FF4346024608A90590002000F085FD39
:1016B0002448B0F800046FF30E002249A1F800049A
:1016C0000846B0F8000420F40040A1F8000401220C
:1016D00040F225511C48FFF786FC07E7C638000892
:1016E0000D0A5B25735D20D5FDD4DAC5E4D6C32091
:1016F00045535038323636202E2E2E2E2E2E0D0AE1
:1017000000000000002001403139322E3136382EE1
:101710003132332E313639006269726431323334FA
:1017200035360000426972644C696E6B000000003F
:101730003138303000000000383038300000000010
:101740002C29010864000020004800400D0A5B2598
:10175000735D2025730D0A00434D445F4C45445F83
:1017600000000000000C0140434D445F4C45445FC5
:1017700025645F25645F25645F454E444C45445FA6
:10178000454E4400434D445F42555A5A45525F000E
:1017900000100140434D445F42555A5A45525F255F
:1017A000645F454E4442555A5A45525F454E440087
:1017B000434D445F554152545F0000005F454E4425
:1017C000554152545F454E4400000000434D445F74
:1017D000524541445F414C4C5F454E44000000007F
:1017E0009C2901082B4950442C0000002DE9F04FA2
:1017F00091B004460D4617467FA30FCB0DAE0FC622
:1018000020120C90E0B20B90E01DC0F307200A906C
:10181000E01DC0B209902812089005F0FF0905F1FB
:101820000F00C0F3072A00F0FF0BA7F1200000F023
:10183000FF08002607E0744800EB0810805D0DA942
:101840008855701CC6B2102EF5DB10200DA96F4A0A
:10185000CDE903B2CDE9051008988DE80106DDE970
:101860000932DDE90B1001F013FA11B0BDE8F08F79
:101870002DE9F04F93B004460D46164620210BA8E3
:1018800001F04BFE271204F0FF0804F10F00C0F333
:101890000729C0B20A904FEA252AE8B2099005F15B
:1018A0000F00C0F30720089005F10F0000F0FF0BB8
:1018B00031460BA801F0F6FD20200BA9544ACDE9D2
:1018C00003B2CDE90510DDE90801CDE900A10290E0
:1018D0004A46414638460A9B01F0DAF913B0BDE8A2
:1018E000F08F2DE9F04105460E46144698461EE05D
:1018F00028461030B0F5C87F03DD002506F1100042
:1019000086B230461030B0F5967F01DD0025002606
:101910002788380200EB272087B243463A463146F3
:101920002846FFF7A5FF05F1100085B2A41C20781A
:101930000028DDD1BDE8F0812DE9F04105460E46D5
:1019400014469846502000F03EFF472000F07EFFEE
:1019500001F0EEF846E020787E281FDC28460830AB
:10196000B0F5C87F03DD002506F1100086B23046D1
:101970001030B0F5967F01DD002500262278434621
:1019800031462846FFF732FF2278224922A001F093
:101990004BFE05F1080085B2641C23E02846103098
:1019A000B0F5C87F03DD002506F1100086B2304691
:1019B0001030B0F5967F01DD00250026278838021B
:1019C00000EB272087B243463A4631462846FFF7C8
:1019D0004FFF22460F4917A001F026FE05F1100027
:1019E00085B2A41C20780028B5D10A4918A001F0BE
:1019F0001BFEBDE8F0810000000000666666667EA2
:101A00006666666600000000E938000854000020A1
:101A100034000020D93E00080D0A5B25735D204587
:101A20006E676C69736820636861723A2025630988
:101A30000D0A00000D0A5B25735D204368696E6521
:101A4000736520636861723A20256C73200D0A006B
:101A50000D0A5B25735D20446973706C61792053B6
:101A60007472696E6720636F6D706C69736865640A
:101A7000202121210D0A0000704700BFFEE700BFB2
:101A8000FEE700BFFEE700BFFEE770477047704704
:101A900010B500F0DEFD10BD10B540F225511B4819
:101AA000FFF786FBD8B11948FFF702FBC4B218480C
:101AB000B0F80004C0F30E0040F2FF3188420EDAA5
:101AC0001349B1F80014C1F30E00411C104AB2F8DA
:101AD000002461F30E020E49A1F800240C5440F2D8
:101AE00024410A48FFF764FB01280DD10848B0F8EB
:101AF000000420F4004000F500400549A1F800046E
:101B00000248FFF7D5FAC4B210BD000000480040FB
:101B10006400002008B501211020FEF79FFF01207E
:101B2000ADF8000010208DF8030003208DF80200AE
:101B300069460648FEF7D6FC08BD10B5FFF7EAFF78
:101B400001210248FEF77DFD10BD0000001001409C
:101B500008B54FF4A060FEF7F7FB27208DF80000D2
:101B600000208DF801008DF8020001208DF803009F
:101B70006846FEF7EEFB08BD00B585B0012188047C
:101B8000FEF779FF01210820FEF768FF4FF480601F
:101B9000ADF8100018208DF8130003208DF8120006
:101BA00004A9F748FEF79EFC4FF40060ADF8100062
:101BB00004208DF8130004A9F148FEF793FC4FF4BC
:101BC000E13000900020ADF80400ADF80600ADF85B
:101BD0000800ADF80C000C20ADF80A006946E94891
:101BE000FFF769F9012240F22551E648FFF7FBF9BA
:101BF000012240F22441E348FFF7F5F9FFF7A8FF7F
:101C00000121E048FFF7E3F905B000BD08B5012167
:101C10000802FEF723FF4FF40050ADF8000010203B
:101C20008DF8030003208DF802006946D648FEF7C0
:101C300059FC01210802FEF711FF4FF48040ADF876
:101C400000006946D048FEF74DFC08BD10B5FFF70F
:101C5000DDFFFFF791FF4FF48041CB48FEF7EFFC2B
:101C60004FF40051C848FEF7ECFC10BD10B54FF41E
:101C70008041C548FEF7E5FCC44800F0D8FC4FF4AD
:101C80008041C148FEF7DBFC10BD2DE9F04106465E
:101C90000C4615461F46BE48B0F800046FF30E0010
:101CA000BB49A1F800043246BAA1B648FFF74FFB82
:101CB0001CB915B90120BDE8F0814FF47A7107FB1A
:101CC00001F000F0B4FC0020B149B1F80014C1F3F8
:101CD0000E01AF4A5054B149B1A001F0A5FCB4B116
:101CE000ADB12146AA4801F023FC08B1012000E073
:101CF000002040B92946A64801F01AFC08B101208D
:101D000000E0002008B10120D5E70020D3E744B16E
:101D100021469F4801F00CFC08B10120CBE70020D0
:101D2000C9E729469A4801F003FC08B10120C2E73F
:101D30000020C0E710B500244FF480419248FEF720
:101D40007EFC994800F073FC0CE04FF4FA7300221B
:101D500096A197A0FFF799FF00B110BDFFF786FF8E
:101D6000601CC4B20A2CF0DB00BFF6E710B50446D5
:101D700024B1012C0AD0022C18D10FE040F6C41374
:101D80008CA28AA18EA0FFF780FF10BD40F6C4137D
:101D900088A286A18DA0FFF778FFF6E740F6C4136E
:101DA00084A282A18CA0FFF770FFEEE70020ECE791
:101DB00030B59FB004460D462B46224689A101A8A6
:101DC00001F042FC41F28833002278A101A8FFF71C
:101DD0005CFF1FB030BD70B5A0B004460D4616467E
:101DE0002B46224684A102A8009601F02DFC4FF458
:101DF0007A7300226DA102A8FFF747FF20B070BDE3
:101E000010B586B004460CB1012000E00020024667
:101E10007FA101A801F018FC4FF4FA73002263A11E
:101E200001A8FFF732FF06B010BDF0B5B9B0064605
:101E30000F4614461D46642120A801F06EFB16B122
:101E4000012E10D107E03B4675A276A120A8009490
:101E500001F0FAFB08E03B4676A272A120A80094AC
:101E600001F0F2FB00E000BF00BF052D06DA20AB59
:101E70002A4671A102A801F0E7FB04E020AA73A1A1
:101E800002A801F0E1FB4FF47A6374A247A102A813
:101E9000FFF7FBFE39B0F0BD70B5BCB004460D468F
:101EA0001646FCB12B46012270A11EA801F0CCFB06
:101EB000324673A1684601F0C7FB4FF4FA73002263
:101EC0003AA11EA8FFF7E1FE50B14FF4FA730022C9
:101ED00036A16846FFF7D9FE10B101203CB070BDB5
:101EE0000020FBE72B46002260A11EA801F0ACFBFE
:101EF0004FF4FA7300222DA11EA8FFF7C6FEEDE7EE
:101F000010B54FF4FA73002228A161A0FFF7BDFEBF
:101F1000A0B163A11E4801F00BFB08B1022010BD67
:101F200062A11B4801F004FB08B10320F7E762A19E
:101F3000174801F0FDFA08B10420F0E70020EEE7B1
:101F400010B500244FF4FA73002218A150A0FFF737
:101F50009CFE002812D05BA10D4801F0E9FA10B1F7
:101F600044F0010401E024F001045AA1084801F002
:101F7000DFFA10B144F00204B6E0B3E0D2E00000B2
:101F8000000C0140004800400020014020A1070053
:101F90006400002025730D0A00000000F33E0008D5
:101FA0005B25735D2025730040420F004F4B0000FE
:101FB000415400006E6F206368616E676500000029
:101FC00041542B43574D4F44453D310041542B4321
:101FD000574D4F44453D320041542B43574D4F44DC
:101FE000453D330041542B43574A41503D22257310
:101FF000222C22257322000041542B435753415079
:102000003D222573222C222573222C312C2564009D
:1020100041542B4349504D55583D25640000000064
:1020200054435000222573222C222573222C257321
:10203000000000005544500041542B434950535474
:102040004152543D25642C257300000041542B431C
:10205000495053544152543D25730000414C524560
:10206000415920434F4E4E454354000041542B43A9
:1020700049505345525645523D25642C2573000066
:1020800041542B43495053544F3D257300000000E9
:1020900041542B43495053544154555300000000C0
:1020A0005354415455533A320D0A0000535441548D
:1020B00055533A330D0A00005354415455533A34A2
:1020C0000D0A00002B4349505354415455533A30A4
:1020D0002C0000002B4349505354415455533A317E
:1020E0002C00000024F0020487A18B4801F020FAA4
:1020F00010B144F0040401E024F0040487A18648F0
:1021000001F016FA10B144F0080401E024F00804CC
:1021100086A1814801F00CFA10B144F0100401E0EE
:1021200024F01004204610BD2DE9F04105460F466D
:102130004FF4FA730022AFF28C1180A0FFF7A5FDD7
:1021400081A1754801F0F4F906460EB1B61D02E012
:102150000020BDE8F081002409E0305D2855285DAD
:10216000222802D10020285503E0601CC4B2BC42E2
:10217000F3DB00BF0120ECE710B54FF4FA73002247
:10218000AFF2D81172A0FFF780FD08B9002010BD92
:102190004FF4FA7372A2AFF2EC1172A0FFF775FD63
:1021A000F5E710B5724800F042FA72A17248FFF7E5
:1021B000CEF8724800F03BFA10BD2DE9F04186B030
:1021C00007460C4615461E464FF0000847B122460A
:1021D000AFF27C116848FFF7BAF84FF0010821E030
:1021E000052E06DAAB1C324665A101A801F02CFAD7
:1021F00004E0AA1C67A101A801F026FA64230022CA
:1022000068A101A8FFF741FD22466749AFF270209F
:1022100001F00AFA4FF4FA73002264A12046FFF796
:1022200034FD8046404606B0BDE8F08170B50446F6
:1022300000253948B0F800046FF30E003649A1F8C4
:1022400000040846B0F8000420F40040A1F800049F
:1022500000BF3148B0F80004C00B0028F9D00020BE
:102260002D49B1F80014C1F30E012B4A50540CB1A2
:10227000154605E04FA1284801F05AF900B1264D56
:10228000284670BD2DE9F041054664230022AFF2D7
:10229000E4214AA0FFF7F9FC1EA11F4801F048F90C
:1022A0008046B8F1000F09D047A11B4801F040F962
:1022B00000F10B07A8EB0700C6B202E00020BDE862
:1022C000F081002403E0385D2855601CC4B2B4429C
:1022D000F9DB0020A8550120F1E710B588B00446CD
:1022E00022463CA1684601F0AFF941F28833002252
:1022F000AFF248316846FFF7C8FC10B1012008B0C2
:1023000010BD0020FBE700002B43495053544154BB
:1023100055533A322C000000640000202B434950F2
:102320005354415455533A332C0000002B43495029
:102330005354415455533A342C00000041542B431C
:102340004946535200000000415049502C220000E1
:1023500041542B4349504D4F44453D31000000004E
:102360003E00000041542B43495053454E44000069
:1023700040420F002B2B2B000048004020A10700FB
:1023800041542B43495053454E443D25642C25640C
:102390000000000041542B43495053454E443D2515
:1023A000640000003E200000FF3E000853454E44FC
:1023B000204F4B002B4950440000000041542B4358
:1023C000574C49460000000041542B43574C4946A6
:1023D0000D0D0A0041542B43495041503D222573B5
:1023E0002200000008B501212020FEF737FB402025
:1023F000ADF8000010208DF8030003208DF80200D6
:1024000069465148FEF76EF808BD10B5FFF7EAFFC0
:1024100040214D48FEF713F910BD08B54020ADF836
:10242000000048208DF8030069464748FEF75AF837
:1024300008BD08B54020ADF8000010208DF803005D
:1024400003208DF8020069463F48FEF74BF808BDAF
:1024500070B50025002424E000BF40213A48FEF773
:10246000D4F80028F9D0282000F0E1F840213648BF
:10247000FEF7CBF801280DD100BF40213248FEF70E
:10248000C4F80128F9D0C4F1070101208840C0B286
:10249000054304E0C4F10701012088408543601C26
:1024A000C4B2082CD8DB284670BD10B50446FFF72F
:1024B000C0FF40212448FEF7C4F844F2506000F009
:1024C000B6F840212048FEF7BAF81E2000F0AFF819
:1024D000FFF7A3FF40211C48FEF797F880BB00BF21
:1024E00040211948FEF791F80028F9D000BF40219B
:1024F0001548FEF78AF80128F9D0FFF7A9FF2070E8
:10250000FFF7A6FF6070FFF7A3FFA070FFF7A0FF23
:10251000E070FFF79DFF2071FFF78BFF40210A4815
:10252000FEF78DF8207861780844A1780844E178B6
:1025300008442179884201D1012010BD0020FCE728
:10254000FFE70020F9E700000014014008B5012171
:102550000820FEF783FA2020ADF8000010208DF847
:10256000030003208DF8020069461548FDF7BAFF05
:1025700001210820FEF772FA0120ADF8000069463B
:102580000F48FDF7AFFF01210820FEF767FA022090
:10259000ADF8000069460A48FDF7A4FF08BD10B574
:1025A000FFF7D4FF20210648FEF749F8012104482F
:1025B000FEF745F802210248FEF741F810BD000081
:1025C000000C014030B527480068274AB0FBF2F103
:1025D000B1F1807F01D301201DE021F07F40401E3A
:1025E0004FF0E022506150170F22002807DA13073E
:1025F0001D0E1E4B00F00F04241F1D5503E0130792
:102600001C0E1B4B1C5400BF00204FF0E0229061B9
:1026100007201061002008B100BFFEE74FF0E02066
:10262000006920F001004FF0E021086130BD01B5E4
:102630001049009808604FF0E020006940F0010068
:102640004FF0E021086100BF0A4800680028FBD174
:1026500008BD0848006820B106480068401E0549CA
:10266000086070470000002040420F0018ED00E0B5
:1026700000E400E02800002000B585B001218803B7
:10268000FEF7ECF901210420FEF7E8F94FF40070A1
:10269000ADF8100018208DF8130003208DF81200FB
:1026A00004A92248FDF71EFF4FF48060ADF810002A
:1026B00004208DF8130004A91C48FDF713FF4FF404
:1026C000E13000900020ADF80400ADF80600ADF850
:1026D0000800ADF80C000C20ADF80A00694614485B
:1026E000FEF7E9FB01211248FEF771FC05B000BDC1
:1026F00070B504460D46E1B20D48FEF7D5FC00BFAB
:1027000080210B48FEF73EFD0028F9D0204670BD21
:1027100010B5044600BF20210548FEF733FD002810
:10272000F9D00348FEF7C4FC10BD000000080140CA
:102730000038014008B501210820FEF78FF94FF459
:102740000040ADF8000002208DF8020010208DF846
:10275000030069465F48FDF7C5FE01211020FEF722
:102760007DF98020ADF8000002208DF802001020D5
:102770008DF8030069465848FDF7B4FE0121082092
:10278000FEF76CF94FF40070ADF8000002208DF8F0
:10279000020010208DF8030069464E48FDF7A2FEA6
:1027A00001210820FEF75AF94FF40050ADF800005F
:1027B00002208DF8020010208DF80300694645487C
:1027C000FDF790FE08BD70B5044625464FF4004164
:1027D0004048FDF734FF4FF400413E48FDF731FF1C
:1027E00080213D48FDF72DFF4FF400513948FDF79A
:1027F00028FF002622E005F0800028B14FF4007188
:102800003448FDF71CFF04E04FF400713148FDF738
:1028100018FF0120FFF70BFF80212F48FDF70FFF66
:102820000120FFF704FF80212B48FDF70AFF68060F
:10283000050E0120FFF7FBFE701CC6B2082EDADB86
:102840004FF400412348FDF7FAFE70BD70B5044611
:1028500025464FF400411F48FDF7F1FE4FF40041BB
:102860001C48FDF7EEFE80211B48FDF7EAFE4FF401
:1028700000511848FDF7E3FE002622E005F0800035
:1028800028B14FF400711348FDF7D9FE04E04FF46E
:1028900000711048FDF7D5FE0120FFF7C8FE80212A
:1028A0000D48FDF7CCFE0120FFF7C1FE80210A484C
:1028B000FDF7C7FE6806050E0120FFF7B8FE701C85
:1028C000C6B2082EDADB4FF400410248FDF7B7FE2E
:1028D00070BD0000000C01400010014008B501214E
:1028E0000820FEF7BBF84FF48040ADF8000002204E
:1028F0008DF8020010208DF803006946FC48FDF7B2
:10290000F1FD01210820FEF7A9F84FF48050ADF841
:10291000000002208DF8020004208DF803006946B3
:10292000F348FDF7DFFD01214020FEF797F84FF453
:102930000060ADF8000002208DF8020010208DF834
:1029400003006946EB48FDF7CDFD08BD10B54FF417
:102950000061E848FDF775FE4FF48041E448FDF75B
:1029600070FEE548FFF763FE4FF48041E048FDF755
:1029700066FEE148FFF75BFE10BD10B500BF712099
:10298000FFF721FF4FF48051D948FDF73EFE044682
:1029900004F0010080F00104002CF0D1D748FFF7CB
:1029A00046FE10BD10B50620FFF70DFF1720FFF7FC
:1029B0004DFF1720FFF74AFF1720FFF747FF10BD15
:1029C00010B50020FFF7FFFEBF20FFF73FFF0D20EF
:1029D000FFF73CFF10BD10B55020FFF7F4FE1720A5
:1029E000FFF734FF10BD10B51220FFF7ECFE10BD4D
:1029F00010B504461CB10420FFF7E5FE02E00220FA
:102A0000FFF7E1FE10BD10B50720FFF7DCFEA520A3
:102A1000FFF71CFF10BD10B500241020FFF7D3FEF8
:102A200000BF04E00020FFF711FF601C84B243F6F2
:102A300098208442F6DB1320FFF7C5FE002404E053
:102A4000FF20FFF703FF601C84B243F69820844206
:102A5000F6DB10BD70B505460024A949A9A000F019
:102A6000E3FD1020FFF7AFFE00BF04E0FF20FFF7FB
:102A7000EDFE601C84B243F698208442F6DB4FF4EE
:102A8000FA60FFF7D4FD1320FFF79DFE002404E059
:102A9000285DFFF7DBFE601C84B243F69820844279
:102AA000F6DB4FF4FA60FFF7C2FD95499FA000F0F6
:102AB000BBFD70BD10B52020FFF785FE002404E0AB
:102AC000A449085DFFF7C2FE641C2C2CF8D321201A
:102AD000FFF779FE002404E09F49085DFFF7B6FE8A
:102AE000641C2A2CF8D32220FFF76DFE002404E09A
:102AF0009A49085DFFF7AAFE641C2A2CF8D323200C
:102B0000FFF761FE002404E09549085DFFF79EFE93
:102B1000641C2A2CF8D32420FFF755FE002404E07F
:102B20009049085DFFF792FE641C2A2CF8D310BD73
:102B300010B52020FFF747FE002404E08A49085D15
:102B4000FFF784FE641C2C2CF8D32120FFF73BFEFA
:102B5000002404E08549085DFFF778FE641C2A2CF8
:102B6000F8D32220FFF72FFE002404E08049085DFF
:102B7000FFF76CFE641C2A2CF8D32320FFF723FEFA
:102B8000002404E07B49085DFFF760FE641C2A2CEA
:102B9000F8D32420FFF717FE002404E07649085DEF
:102BA000FFF754FE641C2A2CF8D310BD10B57349EE
:102BB00073A000F039FDFFF7C9FEFFF7F3FE012017
:102BC000FFF701FE0320FFF741FE0020FFF73EFE66
:102BD0002B20FFF73BFE2B20FFF738FE0120FFF7ED
:102BE00007FF664974A000F01FFDFFF7C6FE6349AA
:102BF0007CA000F019FDFFF7E3FE3020FFF7E3FDB6
:102C00003A20FFF723FE6120FFF7DDFD0120FFF7EB
:102C10001DFE9020FFF71AFE0120FFF717FE2C2063
:102C2000FFF714FE8220FFF7CEFD2820FFF70EFEEF
:102C30005020FFF7C8FD9720FFF708FEFFF73AFF87
:102C40007248FFF707FFFFF7CEFE2C48FFF7EFFCB7
:102C50004A4959A000F0E8FCFFF78FFE474961A000
:102C600000F0E2FCFFF7D7FEFFF7BDFE2348FFF7B9
:102C7000DEFC424950A000F0D7FCFFF77EFE3F4942
:102C800058A000F0D1FC3D4961A000F0CDFC10BD82
:102C90002DE9F05F81460E4617469846DDF838B0BC
:102CA000DDF828A0109D684968A000F0BDFC9120C7
:102CB000FFF789FD9020FFF786FD4846FFF7C6FD28
:102CC0003046FFF7C3FD3846FFF7C0FD4046FFF72B
:102CD000BDFD5046FFF7BAFD0B98FFF7B7FD0C9806
:102CE000FFF7B4FD0D98FFF7B1FD2A465649B7E04E
:102CF000000C01400018014040420F00A086010076
:102D0000EC2801080D0A5B25735D2073656E642055
:102D1000646973706C6179206275666665725B5D6B
:102D20002053544152542E2E2E0D0A000D0A5B25BD
:102D3000735D2073656E6420646973706C617920C3
:102D40006275666665725B5D20454E442E2E2E0DC3
:102D50000A00000044270108702701089A2701088B
:102D6000C4270108EE270108182801084428010893
:102D70006E28010898280108C228010806290108C0
:102D80000D0A5B25735D20656C696E6B20342E32F5
:102D900020696E6368206550617065722064697394
:102DA000706C617920696E697469616C205354415B
:102DB00052542E2E2E0D0A000D0A5B25735D2065E0
:102DC0006C696E6B5F636865636B5F627573795F77
:102DD0007374617475732053544152542E2E2E0D0A
:102DE0000A0000000D0A5B25735D20656C696E6B3F
:102DF0005F636865636B5F627573795F7374617439
:102E0000757320454E442E2E2E0D0A003AB400084C
:102E10000D0A5B25735D20656C696E6B20342E3264
:102E200020696E6368206550617065722064697303
:102E3000706C617920696E697469616C20454E44DB
:102E4000202E2E2E0D0A0000192901080D0A5B25DF
:102E5000735D20456E7465722E2E2E0D0A000000E3
:102E600017A000F0E1FB1020FFF7ADFC002404E008
:102E70001BF80400FFF7EAFC641CAC42F8D32A46B6
:102E80001A491BA000F0D0FB1320FFF79CFC002484
:102E900004E00F99085DFFF7D9FC641CAC42F8D33D
:102EA00012491EA000F0C0FB1220FFF78CFCFFF7B8
:102EB00064FD0E4922A000F0B7FBBDE8F09F0000C2
:102EC0000D0A5B25735D20537461727420746F204A
:102ED00073656E64206F6C64206275666665725BF4
:102EE00025645D2E2E2E0D0A000000001929010810
:102EF0000D0A5B25735D20537461727420746F201A
:102F000073656E64206E6577206275666665725BB8
:102F100025645D2E2E2E0D0A000000000D0A5B2593
:102F2000735D2046696E6973682073656E64696EAF
:102F30006720627566666572732E2E2E0D0A00007C
:102F40000D0A5B25735D20457869742E2E2E0D0ABF
:102F50000000000010B5F9A000F066FB002010BDD5
:102F600010B504464FF48050FE49086009E0FD4961
:102F70000868411EFB4A116018B9FFF7EBFFC0B2A9
:102F800010BD0221F848FDF71CFF0028EFD02146B4
:102F9000F548FDF7C3FE4FF48050F249086009E0A0
:102FA000F0490868411EEF4A116018B9FFF7D2FFD7
:102FB000C0B2E5E70121EC48FDF703FF0028EFD0A0
:102FC000E948FDF7ADFEC0B2DAE72DE9F041002493
:102FD0000025002600271021E448FDF732FB9F2042
:102FE000FFF7BEFFFF20FFF7BBFF0546FF20FFF7FF
:102FF000B7FF0646FF20FFF7B3FF07461021DB4867
:10300000FDF71DFB280440EA062040EA070420469D
:10301000BDE8F08100B587B000BF00BF01210520E9
:10302000FDF71CFD01210803FDF718FD2020ADF878
:10303000040003208DF8060018208DF8070001A970
:10304000CA48FDF74FFA4020ADF8040001A9C7486F
:10305000FDF748FA8020ADF8040001A9C348FDF748
:1030600041FA1020ADF804008DF8070001A9BF480F
:10307000FDF738FA1021BD48FDF7E1FA0020ADF860
:1030800008004FF48270ADF80A000020ADF80C0083
:103090000220ADF80E000120ADF810004002ADF89E
:1030A00012000820ADF814000020ADF8160007202B
:1030B000ADF8180002A9AC48FDF75AFD0121AA4855
:1030C000FDF7FBFDFFF781FFA949884202D10020EF
:1030D00007B000BD0120FBE710B500241021A34874
:1030E000FDF7AFFA0520FFF73BFF4FF480509D49F5
:1030F000086000BFFF20FFF733FF044699490868C6
:10310000411E984A116010B9FFF724FF10BD04F06A
:1031100001000028EED110219448FDF790FA00BF7D
:10312000F4E710B510219148FDF78BFA0620FFF760
:1031300017FF10218D48FDF782FA10BD10B5044627
:10314000FFF7EFFFFFF7C8FF10218848FDF779FA76
:103150002020FFF705FFC4F30740FFF701FFC4F38A
:103160000720FFF7FDFEE0B2FFF7FAFE10217F48CF
:10317000FDF765FAFFF7B0FF10BD10B5FFF7D1FFFF
:1031800010217A48FDF75DFAC720FFF7E9FE10210C
:103190007648FDF754FAFFF79FFF10BD70B505465E
:1031A0000C461646FFF7BDFF10217048FDF749FA9F
:1031B0000220FFF7D5FEC4F30740FFF7D1FEC4F3AA
:1031C0000720FFF7CDFEE0B2FFF7CAFEB6F5807F1D
:1031D00001DD4FF4807603E02878FFF7C1FE6D1C17
:1031E000301EA6F101018EB2F6D110215F48FDF725
:1031F00026FAFFF771FF70BD2DE9F05F07460E4616
:1032000014464FF00008C146C2460025AB4606F002
:10321000FF0ACAF10000C5B22046E11704EB1161B4
:10322000C1F30728E11704EB11610912A4EB012196
:1032300001F0FF09BAF1000F20D1B8F1000F05D15C
:10324000224631463846FFF7A9FF64E009E04FF413
:10325000807231463846FFF7A1FF06F5807607F504
:103260008077B8F10000A8F1010101F0FF08EED16C
:103270004A4631463846FFF791FF4CE0B8F1000F5F
:1032800018D1A94510DDA9EB050000F0FF0B2A4677
:1032900031463846FFF782FF2E442F445A463146C6
:1032A0003846FFF77BFF36E0224631463846FFF7C7
:1032B00075FF30E0601B84B22046E11704EB11611A
:1032C000C1F30728E11704EB11610912A4EB0121F6
:1032D00001F0FF092A4631463846FFF75FFF2E44CA
:1032E0002F4409E04FF4807231463846FFF756FF0D
:1032F00006F5807607F58077B8F10000A8F10101A6
:1033000001F0FF08EED1B9F1000F04D04A46314672
:103310003846FFF743FFBDE8F09F70B505460C4601
:10332000164610211148FDF78CF90320FFF718FE0F
:10333000C4F30740FFF714FE1CE000003C3C2D46A0
:103340004C4153482D4552524F522D3E3E20535032
:10335000492054696D656F7574206572726F7221B2
:103360000A0000002C00002000300140000801404D
:103370001740EF00C4F30720FFF7F2FDE0B2FFF7BC
:10338000EFFD04E0FF20FFF7EBFD28706D1C301E01
:10339000A6F10106F6D110215048FDF750F970BD95
:1033A00010B5002410214D48FDF74BF9AB20FFF775
:1033B000D7FDFF20FFF7D4FDFF20FFF7D1FDFF2051
:1033C000FFF7CEFDFF20FFF7CBFD04461021434859
:1033D000FDF735F9204610BD10B5044610213F48D1
:1033E000FDF72FF90320FFF7BBFDC4F30740FFF7FC
:1033F000B7FDC4F30720FFF7B3FDE0B2FFF7B0FD60
:1034000010BD10B5FF20FFF7ABFD10BD10B5044691
:103410004FF480503249086008E031490868411E85
:103420002F4A116010B9FFF795FD10BD02212D48FC
:10343000FDF7C7FC0028F0D021462A48FDF76EFCB6
:103440004FF480502649086008E025490868411E6D
:10345000234A116010B9FFF77DFDE6E701212148FD
:10346000FDF7AFFC0028F0D01E48FDF759FCDCE763
:1034700010B510211948FDF7E4F8B920FFF770FDE9
:1034800010211648FDF7DBF810BD10B510211348C8
:10349000FDF7D7F8AB20FFF763FD10210F48FDF7CC
:1034A000CEF810BD2DE9F04105460C462612E7B2D4
:1034B000A6F1B000C0EB001101EB401007EB40009B
:1034C000A1384FEA401808F5805120222846FFF71E
:1034D00024FF00BF00BF0020BDE8F08100080140CC
:1034E0002C0000200030014040EA01039B0703D07C
:1034F00009E008C9121F08C0042AFAD203E011F833
:10350000013B00F8013B521EF9D27047D2B201E0F4
:1035100000F8012B491EFBD270470022F6E710B5D8
:1035200013460A4604461946FFF7F0FF204610BD31
:1035300030B505462A460B4612F8010B13F8014B2D
:1035400008B1A042F8D01CB1002802D06D1CF1E7F0
:10355000284630BD421C10F8011B0029FBD1801AFF
:1035600070472DE9F05F0546002092469B4688464D
:103570000646814640241BE02846414647462246EF
:1035800000F041F853465A46C01A914110D31146F3
:103590001846224600F028F82D1A67EB01084F461E
:1035A00022460120002100F01FF817EB00094E41D0
:1035B000201EA4F10104DFDC484631462A4643467A
:1035C000BDE8F09F064C074D06E0E06840F00103BF
:1035D00094E8070098471034AC42F6D3FCF7ACFDF2
:1035E000E8290108082A0108202A04DB203A00FA09
:1035F00002F1002070479140C2F1200320FA03F34A
:10360000194390407047202A04DB203A21FA02F047
:103610000021704721FA02F3D040C2F1200291400C
:1036200008431946704700000FB4054B10B503A9B5
:10363000044A029800F02CF810BC5DF814FB00005E
:10364000F1260008300000200FB4084B10B504A983
:1036500002AA039800F01CF8044602A9002000F01A
:103660002DF9204610BC5DF814FB0000BD380008A1
:1036700002E008C8121F08C1002AFAD1704770473B
:10368000002001E001C1121F002AFBD17047000099
:103690002DE9FF4F8BB09A460F460446002606E000
:1036A00025280BD052460D999047641C761C207833
:1036B0000028F5D10FB03046BDE8F08F0025A946AF
:1036C00001227D4900E0054314F8013F203B02FA46
:1036D00003F00842F7D120782E2817D114F8010FF3
:1036E00045F004052A280ED06FF02F022078A0F1B3
:1036F000300109290AD809EB890102EB410100EBED
:103700000109641CF2E757F8049B641C20786C28BC
:103710000DD004DC4C2812D06A2811D104E07428A2
:103720000DD07A280CD10AE045F4001507E0617845
:1037300045F48015814202D1641C05F58015641C96
:10374000207869283ED006DC0028B3D063280BD04F
:10375000642804D136E0732810D075285CD0524616
:103760000D999047761CA5E017F8040B8DF8000022
:1037700000208DF80100E846012003E057F8048B93
:103780004FF0FF3069074FF0000501D40AE06D1CCF
:103790004D450DDA8542FADB18F805100029F6D1FF
:1037A00006E06D1C8542FCDB18F805100029F8D1F5
:1037B0002E4404E018F8010B52460D9990476D1EF7
:1037C000F8D277E000200A90C5F302504FF00A0BC0
:1037D00002280CD001CFC117021E71F100020CDAD1
:1037E0000023D0EB030063EB01012D2208E0FF1D55
:1037F00027F00707F7E80201EEE72A0504D52B2298
:103800008DF82420012203E0EA070FD02022F7E7F9
:103810000DF12008089218E000200A90C5F302502C
:103820004FF00A0B022803D001CF00210022EFE75E
:10383000FF1D27F00707F7E80201F7E75A460A9B42
:10384000FFF78FFE303208F8012D50EA0102F5D162
:10385000ADEB080000F1200B680701D44FF001091F
:10386000D94502DDA9EB0B0000E0002081460025D0
:1038700006E009A85246405D0D9990476D1C761CE4
:1038800008988542F5DB04E0302052460D999047B8
:10389000761CB9F10001A9F10109F5DC05E018F881
:1038A000010B52460D999047761CBBF10001ABF11C
:1038B000010BF4DC641CFAE6092801000A68531CB9
:1038C0000B6010707047455350383236365F537472
:1038D00061546370436C69656E745F556E76617296
:1038E0006E69736854657374000000000000000086
:1038F000000000000000000000000000183C3C3CFC
:103900001818001818000000000000006666660025
:1039100000000000000000000000000036367F3686
:1039200036367F3636000000000018183C666030DE
:10393000180C06663C18180000000070D8DA760CE7
:1039400018306E5B1B0E000000000000386C6C38F5
:10395000606F66663B000000000000001818180049
:103960000000000000000000000000000C181830EB
:103970003030303018180C00000000003018180CDF
:103980000C0C0C0C18183000000000000000361C55
:103990007F1C360000000000000000000000181826
:1039A0007E18180000000000000000000000000069
:1039B0000000001C1C0C18000000000000000000AB
:1039C0007E00000000000000000000000000000079
:1039D0000000001C1C0000000000000006060C0C8B
:1039E0001818303060600000000000001E333737C8
:1039F000333B3B331E000000000000000C1C7C0C1D
:103A00000C0C0C0C0C000000000000003C6666066C
:103A10000C1830607E000000000000003C66660666
:103A20001C0666663C0000000000000030303636A0
:103A300036667F0606000000000000007E606060C1
:103A40007C06060C78000000000000001C18307C8A
:103A5000666666663C000000000000007E060C0CF6
:103A60001818303030000000000000003C66667618
:103A70003C6E66663C000000000000003C66666626
:103A8000663E0C18380000000000000000001C1CFE
:103A90000000001C1C0000000000000000001C1CB6
:103AA0000000001C1C0C180000000000060C183060
:103AB0006030180C06000000000000000000007ECE
:103AC000007E000000000000000000006030180CC4
:103AD000060C183060000000000000003C66660C18
:103AE0001818001818000000000000007EC3C3CFA3
:103AF000DBDBCFC07F00000000000000183C6666E2
:103B0000667E666666000000000000007C666666F1
:103B10007C6666667C000000000000003C66666013
:103B2000606066663C00000000000000786C66661D
:103B30006666666C78000000000000007E606060D1
:103B40007C6060607E000000000000007E606060BD
:103B50007C60606060000000000000003C66666001
:103B6000606E66663E0000000000000066666666E5
:103B70007E66666666000000000000003C181818AB
:103B8000181818183C000000000000000606060681
:103B9000060666663C0000000000000066666C6C6D
:103BA000786C6C6666000000000000006060606079
:103BB000606060607E000000000000006363776B5F
:103BC0006B6B636363000000000000006363737B42
:103BD0006F67636363000000000000003C66666678
:103BE000666666663C000000000000007C66666653
:103BF0007C60606060000000000000003C6666665B
:103C0000666666663C0C0600000000007C66666620
:103C10007C6C666666000000000000003C66603058
:103C2000180C06663C000000000000007E18181802
:103C30001818181818000000000000006666666674
:103C4000666666663C000000000000006666666608
:103C50006666663C18000000000000006363636B4A
:103C60006B6B3636360000000000000066663418C4
:103C7000182C666666000000000000006666666636
:103C80003C18181818000000000000007E06060C02
:103C9000183060607E000000000000003C303030D2
:103CA000303030303030303C000000006060303068
:103CB00018180C0C06060000000000003C0C0C0C50
:103CC0000C0C0C0C0C0C0C3C0000183C66000000AA
:103CD00000000000000000000000000000000000E4
:103CE00000000000000000FF000038180C00000079
:103CF00000000000000000000000000000003C0682
:103D0000063E66663E0000000000000060607C66C3
:103D1000666666667C0000000000000000003C66ED
:103D2000606060663C0000000000000006063E6621
:103D3000666666663E0000000000000000003C660B
:103D4000667E60603C000000000000001E303030E5
:103D50007E303030300000000000000000003E6681
:103D6000666666663E06067C0000000060607C6653
:103D70006666666666000000000000181800781885
:103D8000181818187E0000000000000C0C003C0CF5
:103D90000C0C0C0C0C0C0C780000000060606666CB
:103DA0006C786C6666000000000000007818181837
:103DB000181818187E0000000000000000007E6B3C
:103DC0006B6B6B6B630000000000000000007C6602
:103DD00066666666660000000000000000003C6643
:103DE000666666663C0000000000000000007C661D
:103DF000666666667C6060600000000000003E66EB
:103E0000666666663E060606000000000000666EF6
:103E100070606060600000000000000000003E6014
:103E2000603C06067C0000000000000030307E3060
:103E3000303030301E0000000000000000006666D8
:103E4000666666663E0000000000000000006666D0
:103E50006666663C18000000000000000000636B0E
:103E60006B6B6B36360000000000000000006666D9
:103E70003C183C666600000000000000000066661A
:103E8000666666663C0C18F00000000000007E06C6
:103E90000C1830607E000000000000000C1818189C
:103EA0003060301818180C0000000000181818189E
:103EB00018181818181818180000000030181818CA
:103EC0000C060C18181830000000000071DB8E0082
:103ED000000000000000000000454C494E4B30340B
:103EE000325F44697370537472696E675F454E5FE9
:103EF000434800455350383236365F436D640045C1
:103F00005350383236365F53656E64537472696E3F
:103F10006700FFFFFFFFFFFFFFFFFFFFFFFFFFFF48
:103F2000FFFFFFFFFFFFFFFFFFFFFFFFFFFFFFFFA1
:103F3000FFFFFFFFFFFFFFFFFFFFFFFFFFFFFFFF91
:103F4000FFFFFFFFFFFFFFFFFFFFFFFFFFFFFFFF81
:103F5000FFFFFFFFFFFFFFFFFFFFFFFFFFFFFFFF71
:10435000CFFFFFC3FFFFFFFFFFFFFFFFFFFFFFFFD9
:10436000FFFFFFFFFFFFFFFFFFFFFFFFFFFFFFFF5D
:10437000FFFFFFFFFFFFFFFFFFFFFFFFFFFFFFFF4D
:10438000FFF001FFFC00007FFFFFFFFFFFFFFFFFCB
:10439000FFFFFFFFFFFFFFFFFFFFFFFFFFFFFFFF2D
:1043A000FFFFFFFFFFFFFFFFFFFFFFFFFFFFFFFF1D
:1043B000FFFFFE00003FE0000007FFFFFFFFFFFFE1
:1043C000FFFFFFFFFFFFFFFFFFFFFFFFFFFFFFFFFD
:1043D000FFFFFFFFFFFFFFFFFFFFFFFFFFFFFFFFED
:1043E000FFFFFFFFF000000000000000FFFFFFFFE5
:1043F000FFFFFFFFFFFFFFFFFFFFFFFFFFFFFFFFCD
:10440000FFFFFFFFFFFFFFFFFFFFFFFFFFFFFFFFBC
:10441000FFFFFFFFFFFFC0000000000000000FFFD4
:10442000FFFFFFFFFFFFFFFFFFFFFFFFFFFFFFFF9C
:10443000FFFFFFFFFFFFFFFFFFFFFFFFFFFFFFFF8C
:10444000FFFFFFFFFFFFFFFE000000000000000075
:1044500000FFFFFFFFFFFDFFFFFFFFFFFFFFFFFF6D
:10446000FFFFFFFFFFFFFFC0FFFFFFFFFFFFFFFF9B
:10447000FFFFFFFFFFFFFFFFFFF000000000000055
:104480000000000FFFFFFFFC0000FFFFFFFFF80F21
:10449000FFFFFC000000FFFF80000003FFFC003F67
:1044A000FFFE00007FFFFFFFFFFFFE000000000097
:1044B0000000000000000FFF00000000FFFFFFF001
:1044C0000001FFFF000000000000000000000000ED
:1044D000000003C00000007FFFFFFFFE000000009F
:1044E000000000000000000000000000000003FFCA
:1044F000800000000000000000000000000000003C
:1045000000000000000000000000000000000000AB
:10451000000000000000000000000000000000009B
:10452000000000000000000000000000000000008B
:10453000000000000000000000000000000000007B
:10454000000000000000000000000000000000006B
:10455000000000000000000000000000000000005B
:10456000000000000000000000000000000000004B
:10457000000000000000000000000000000000003B
:10458000000000000000000000000000000000002B
:10459000000000000000000000000000000000001B
:1045A000000000000000000000000000000000000B
:1045B00000000000000000000000000000000000FB
:1045C00000000000000000000000000000000000EB
:1045D00000000000000000000000000000000000DB
:1045E0000000000000000000FFFFFFFFFFFFFFFFD3
:1045F000FFFFFFFFFFFFFFFFFFFFFFFFFFFFFFFFCB
:10460000FFFFFFFFFFFFFFFFFFFFFFFFFFFFFFFFBA
:10461000FFFFFFFFFFFFFFFFFFFFFFFFFFFFFFFFAA
:10462000FFFFFFFFFFFFFFFFFFFFFFFFFFFFFFFF9A
:104A3000FFFFFFFF000000FFFFFFFFFFFFFFFFFF83
:104A4000FFFFFFFFFFFFFFFFFFFFFFFFFFFFFFFF76
:104A5000FFFFFFFFFFFFFFFFFFFFFFFFFFFFFFFF66
:104A6000FFFFFFFFFFFF03FFFFFFFFFFFFFFFFFF52
:104A7000FFFFFFFFFFFFFFFFFFFFFFFFFFFFFFFF46
:104A8000FFFFFFFFFFFFFFFFFFFFFFFFFFFFFFFF36
:104A9000FFFFFFFFFFFFFFFFFFFFFFFFFFFFFFFF26
:104AA000FFFFFFFFFFFFFFFFFFFFFFFFFFFFFFFF16
:104AB000FFFFFFFFFFFFFFFFFFFFFFFFFFFFFFFF06
:104AC000FFFFFFFFFFFFFFFFFFFFF8FFFFFFFFFFFD
:104AD000FFFFFFFFFFFFFFFFFFFFFFFFFFFFFFFFE6
:104AE000FFFFFFFFFFFFFFFFFFFFFFFFFFFFFFFFD6
:104AF000FFFFFFFFFFFFFFFFFFFFFFFFE3FFFFFFE2
:104B0000FFFFFFFFFFFFFFFFFFFFFFFFFFFFFFFFB5
:104B1000FFFFFFFFFFFFFFFFFFFFFFFFFFFFFFFFA5
:104B2000FFFFFFFFFFFFFFFFFFFFFFFFFFFFE3FFB1
:104B3000FFFFFFFFFFFFFFFFFFFFFFFFFFFFFFFF85
:104B4000FFFFFFFFFFFFFFFFFFFFFFFFFFFFFFFF75
:104B5000FFFFFFFFFFFFFFFFFFFFFFFFFFFFFFFF65
:104B6000C7FFFFFFFFFFC7FFFFFFFFFFFFFFFFFFC5
:104B7000FFFFFFFFFFFFFFFFFFFFFFFFFFFFFFFF45
:104B8000FFFFFFFFFFF9FFFFFFFFFFFFFFFFFFFF3B
:104B9000FFFFC7FFFFFFFFFF1FFFFFFFFFFFFFFF3D
:104BA000FFFFFFFFFFFFFFFFFFFFFFFFFFFFFFFF15
:104BB000FFFFFFFFFFFFFFF0FFFFFFFFFFFFFFFF14
:104BC000FFFFFFFFC7FFFFFFFFFE3FFFFF00003FAC
:104BD000FFFFFFFFFFFFFFFFFFFFFFFFFFFFFFFFE5
:104BE000FFFFFFFFFFFFFFFFFFE07FFFFFFFFFFF74
:104BF000FFFFFFFFFFFFC601FFFFFFFE3FFFFC3F80
:104C0000FFFFFFFFFFFFFFFFFFFFFFFFFFFFFFFFB4
:104C1000FFFFFFFFFFFFFFFFFFFFFFC01FFFFFFFC3
:104C2000FFFFFFFFFFFFFFFFC6019F0FFFFC7FFF9E
:104C3000F8FFFFFFFFFFFFFFFFFFFFFFFFFFFFFF8B
:104C4000FFFFFFFFFFFFFFFFFFFFFFFFFF000FFF63
:104C5000FFFFFFFFFFFFFFFFFFFFC6019FE0007C9C
:104C60007FFFF8FFFFFFFFC0000003FFFFFFFFFF14
:104C7000FFFFFFFFFFFFFFFFFFFFFFFFFFFFFE0044
:104C800003FFFFFFFFFFFFFFFFFFFFFFC6019FFFC7
:104C9000FE0C7FFFF1FFFFFFFF0FFFFFFFFFFFFF96
:104CA000FFFFFFFFFFFFFFFFFFFFFFFFFFFFFFFF14
:104CB000FC0001FFFFFFFFFFFFFFFFFFFFFFC6013B
:104CC0009FFFFFFC639FF1FFFFFFFF3FFFE3FFFF3D
:104CD000FFFFFFFFFFFFFFFFFFFFFFFFFFFFFFFFE4
:104CE000FFFFF000007FFFFFFFFFFFFFFFFFFFFF61
:104CF000C6019FFFFFFC6307F1FFFFFFFE3FFF8F31
:104D0000FFFFFFFFFFFFFFFFFFFFFFFFFFFFFFFFB3
:104D1000FFFFFFFFE000000003FFFFFFFFFFFFFFBB
:104D2000FFFFC6019FFFFFFC6307F1F7FFFFFE7F58
:104D3000FF9FFFFF8FFFFFFFFFFFFFFFFFFFFFFF53
:104D4000FFFFFFFFFFFFC000000000FFFFFFFFFFAE
:104D5000FFFFFFFFC6019FFFFFFC6307F1F3FFFFAB
:104D6000FE7FFF1FFFFE3FFFFFFFFFFFFFFFFFFF75
:104D7000FFFFFFFFFFFFFFFC000000000027FFFF19
:104D8000FFFFFFFFFFFFC6019FFFFFFC6307F1F37B
:104D9000FCF8FE7FFF1FFFFE7FFFFFFFFFFFFFFF0F
:104DA000FFFFFFFFFFFFFFFFFFFA00000000001BF7
:104DB000FFFFFFFFFFFFFFFFC6019FFFFFFC630731
:104DC000F1F3FCF83E7FFF1FFFFC7FFFFFFFFFFFBB
:104DD000FFFFFFFFFFFFFFFFFFFFFFFB8000000063
:104DE0000019FFFFFFFFFFFFFFFFC6019FFFFFFC52
:104DF0006307F1F3FCF83E7C1F1FFFFC7FFFFF0001
:104E00000000000000000BFFFFFFFFFFFFFBE000C2
:104E1000000007F3FFFFFFFFFFFFFFFFC6019FFF3B
:104E2000FFFC6307F1F3FCF83E7C1F1E30FC7FFFA4
:104E3000FC7FFFFFFFFFFFFFFFFFFFFFFFFFFFFD07
:104E4000E001FBFFFFE7FFFFFFFFFFFFFFFFC601E2
:104E50009FFFFFFC6307F1F3FCF83E7C1F1E300C44
:104E60007FFFF8FF8000000000000FFFFFFFFFFF43
:104E7000FFFE3C07FFFF11CFFFFFFFFFFFFFFFFF1C
:104E8000C6019FFFFFFC6307F1F3FCF83E7C1F1E89
:104E9000300C7FFFF1FE3FFFFFFFFFFFFFFFFFFF33
:104EA000FFFFFFFFDE000000EC1FFFFFFFFFFFFF23
:104EB000FFFFC6019FFFFFFC6307F1F3FCF83E7C98
:104EC0001F1E300C7FFFF1FC7FFFFFFFFFFFFFFF86
:104ED000FFFFFFFFFFFFE1FFFFFFFFFFFFFFFFFF00
:104EE000FFFFFFFFC6019FFFFFFC6307F1F3FCF824
:104EF0003E7C1F1E300C7FC7F1FC7FFFFFFFFFFFD2
:104F0000FFFFFFFFFFFFFFFFFFFFFFFFFFFFFFFFB1
:104F1000FFFFFFFFFFFFC6019FFFFFFC6307F1F3E9
:104F2000FCF83E7C1F1E300C7FC631FCFFFFFFFFEC
:104F3000FFFFFFFFFFFFFFFFFFFFFFFFFFFFFFFF81
:104F4000FFFFFFFFFFFFFFFFC6019FFFFFFC63079F
:104F5000F1F3FCF83E7C1F1E300C7FC631FCFFFFD6
:104F6000FF8FFFFFFFFFFFFFFFFFFFFFFFFFFFFFC1
:104F7000FFFFFFFFFFFFFFFFFFFFC6019FFFFFFCDB
:104F80006307F1F3FCF83E7C1F1E300C7FC6319C9A
:104F9000FFFFFF1FFFFFFFFFFFFFFFFFFFFFFFFF01
:104FA000FFFFFFFFFFFFFFFFFFFFFFFFC6019FFFA8
:104FB000FFFC6307F1F3FCF83E7C1F1E300C7FC63C
:104FC000319CFFFFFE3FFFFFFFFFFFFFFFFFFFFFE3
:104FD000FFFFFFFFFFFFFFFFFFFFFFFFFFFFC60118
:104FE0009FFFFFFC6307F1F3FCF83E7C1F1E300CB3
:104FF0007FC6319CFFFFFC7FFFFFFFFFFFFFFFFF2E
:10500000FFFFFFFFFFFFFFFFFFFFFFFFFFFFFFFFB0
:10501000C6019FFFFFFC6307F1F3FCF83E7C1F1EF7
:10502000300C7FC6319CFFCFFC7FFFFFFFFFFFFFEF
:10503000FFFFFFFFFFFFFFFFFFFFFFFFFFFFFFFF80
:10504000FFFFC6019FFFFFFC6307F1F3FCF83E7C06
:105050001F1E300C7FC6319CFFC0FC7FFFFFFFFF8F
:10506000FFFFFFFFFFFFFFFFFFFFFFFFFFFFFFFF50
:10507000FFFFFFFFC6019FFFFFFC6307F1F3FCF892
:105080003E7C1F1E300C7FC6319CFFC07C7FFFFF23
:10509000FFFFFFFFFFFFFFFFFFFFFFFFFFFFFFFF20
:1050A000FFFFFFFFFFFFC6019FFFFFFC6307F1F358
:1050B000FCF83E7C1F1E300C7FC6319CFFC07C7FFD
:1050C000FFFFFFCFFFFFFFFFFFFFFFFFFFFFFFFF20
:1050D000FFFFFFFFFFFFFFFFC6019FFFFFFC63070E
:1050E000F1F3FCF83E7C1F1E300C7FC6319CFFC0E4
:1050F0007C63FFFFFF1FFFFFFFFFFFFFFFFFFFFFBF
:10510000FFFFFFFFFFFFFFFFFFFFC6019FFFFFFC49
:105110006307F1F3FCF83E7C1F1E300C7FC6319C08
:10512000FFC07C60FFFFFE3FFFFFFFFFFFFFFFFFB1
:10513000FFFFFFFFFFFFFFFFFFFFFFFFC6019FFF16
:10514000FFFC6307F1F3FCF83E7C1F1E300C7FC6AA
:10515000319CFFC07C60C1FFFC7FFFFFFFFFFFFFB2
:10516000FFFFFFFFFFFFFFFFFFFFFFFFFFFFC60186
:105170009FFFFFFC6307F1F3FCF83E7C1F1E300C21
:105180007FC6319CFFC07C60C1FFFC7FFFFFFFFF3B
:10519000FFFFFFFFFFFFFFFFFFFFFFFFFFFFFFFF1F
:1051A000C6019FFFFFFC6307F1F3FCF83E7C1F1E66
:1051B000300C7FC6319CFFC07C60C1F07C7FFFF16A
:1051C000FFFFFFFFFFFFFFFFFFFFFFFFFFFFFFFFEF
:1051D000FFFFC6019FFFFFFC6307F1F3FCF83E7C75
:1051E0001F1E300C7FC6319CFFC07C60C1F00C7F5D
:1051F000FFE3FFFFFFFFFFFFFFFFFFFFFFFFFFFFDB
:10520000FFFFFFFFC6019FFFFFFC6307F1F3FCF800
:105210003E7C1F1E300C7FC6319CFFC07C60C1F0FD
:105220000C7FFFC7FFFFFFFFFFFFFFFFFFFFFFFF39
:10523000FFFFFFFFFFFFC6019FFFFFFC6307F1F3C6
:10524000FCF83E7C1F1E300C7FC6319CFFC07C608A
:10525000C1F00C7FFFCFFFFFFFFFFFFFFFFFFFFF4E
:10526000FFFFFFFFFFFFFFFFC6019FFFFFFC63077C
:10527000F1F3FCF83E7C1F1E300C7FC6319CFFC052
:105280007C60C1F00C781FCFFFFFFFFFFFFFFFFF27
:10529000FFFFFFFFFFFFFF8FFFFFC6019FFFFFFC28
:1052A0006307F1F3FCF83E7C1F1E300C7FC6319C77
:1052B000FFC07C60C1F00C7807CFFFFFE3FFFFFF6A
:1052C000FFFFFFFFFFFFFFFFFF01FFFFC6019FFF83
:1052D000FFFC6307F1F3FCF83E7C1F1E300C7FC619
:1052E000319CFFC07C60C1F00C7807CFFFFF8FFFBF
:1052F000FFFFFFFFFFFFFFFFFFFFFE00FFFFC601F5
:105300009FFFFFFC6307F1F3FCF83E7C1F1E300C8F
:105310007FC6319CFFC07C60C1F00C7807CEFFFFD8
:105320001FFFFFFFFFFFFFFFFFFFFFFFFC003FFF2F
:10533000C6019FFFFFFC6307F1F3FCF83E7C1F1ED4
:10534000300C7FC6319CFFC07C60C1F00C7807CC6C
:105350007FFF3FFFFFFFFFFFFFFFFFFFFFFFFC009F
:105360000FFFC6019FFFFFFC6307F1F3FCF83E7CD3
:105370001F1E300C7FC6319CFFC07C60C1F00C78D2
:1053800007CC7FFF3FFFFFFFFFFFFFFFFFFFFFFF98
:10539000F8000007C6019FFFFFFC6307F1F3FCF86C
:1053A0003E7C1F1E300C7FC6319CFFC07C60C1F06C
:1053B0000C7807CC7F1E3FFFFFFFFFFFFFFFFFFFC3
:1053C000FF7FF0000000C6019FFFFFFC6307F1F3C1
:1053D000FCF83E7C1F1E300C7FC6319CFFC07C60F9
:1053E000C1F00C7807CC7F1E3FFFFFFFFFFFFFFFE0
:1053F000FFFFFE3FE0000000C6019FFFFFFC6307C8
:10540000F1F3FCF83E7C1F1E300C7FC6319CFFC0C0
:105410007C60C1F00C7807CC7F1E3FFFFFFFFFFFD1
:10542000FFFFFFFFFC0FE0000000C6019FFFFFFC35
:105430006307F1F3FCF83E7C1F1E300C7FC6319CE5
:10544000FFC07C60C1F00C7807CC7F1E33FFFFFFEC
:10545000FFFFFFFFFFFFF80000000000C6019FFFF5
:10546000FFFC6307F1F3FCF83E7C1F1E300C7FC687
:10547000319CFFC07C60C1F00C7807CC7F1E31BF2F
:10548000FFFFFFFFFFFFFFFFE00000000000C6017D
:105490009FFFFFFC6307F1F3FCF83E7C1F1E300CFE
:1054A0007FC6319CFFC07C60C1F00C7807CC7F1EAA
:1054B00031C7FFFFFFFFFFFFFFFF000000000000FC
:1054C000C6019FFFFFFC6307F1F3FCF83E7C1F1E43
:1054D000300C7FC6319CFFC07C60C1F00C7807CCDB
:1054E0007F1E31F0FFFFFFFFFFFFFFFE700001F1A5
:1054F000BFFFC6019FFFFFFC6307F1F3FCF83E7C92
:105500001F1E300C7FC6319CFFC07C60C1F00C7840
:1055100007CC7F1E31FE3FFFFFFFFFFFFFFDFE00B8
:10552000F7FFFFFFC6019FFFFFFC6307F1F3FCF8E5
:105530003E7C1F1E300C7FC6319CFFC07C60C1F0DA
:105540000C7807CC7F1E31FFC7FFFE00000001F979
:10555000FFFFFFFFFFFFC6019FFFFFFC6307F1F3A3
:10556000FCF83E7C1F1E300C7FC6319CFFC07C6067
:10557000C1F00C7807CC7F1E31FFF1FFF8FFFFFF71
:10558000FFFC3FFFFFFFF800C6019FFFFFFC630722
:10559000F1F3FCF83E7C1F1E300C7FC6319CFFC02F
:1055A0007C60C1F00C7807CC7F1E31FFFE7FF1FFDD
:1055B000FFFFFFFF8FFFFF8007FFC6019FFFFFFC7C
:1055C0006307F1F3FCF83E7C1F1E300C7FC6319C54
:1055D000FFC07C60C1F00C7807CC7F1E31FFFF8FCD
:1055E000E3E000007FFFF00FF03FFFFFC6019FFFE9
:1055F000FFFC6307F1F3FCF83E7C1F1E300C7FC6F6
:10560000319CFFC07C60C1F00C7807CC7F1E31FF5D
:10561000FFE3E387FFFFFFFFFE600FFFFFFFC60111
:105620009FFFFFFC6307F1F3FCF83E7C1F1E300C6C
:105630007FC6319CFFC07C60C1F00C7807CC7F1E18
:1056400031FFFFFCE39FFFFFFFFFFFFFFFFFFFFFB7
:10565000C6019FFFFFFC6307F1F3FCF83E7C1F1EB1
:10566000300C7FC6319CFFC07C60C1F00C7807CC49
:105670007F1E31FFFFFFE31FFFFFFFFFFFFFFFFF65
:10568000FFFFC6019FFFFFFC6307F1F3FCF83E7CC0
:105690001F1E300C7FC6319CFFC07C60C1F00C78AF
:1056A00007CC7F1E31FFFFFFE31FFFFFFFFFFFFF60
:1056B000FFFFFFFFC6019FFFFFFC6307F1F3FCF84C
:1056C0003E7C1F1E300C7FC6319CFFC07C60C1F049
:1056D0000C7807CC7F1E31FFFFFFE33FFFFFFFFF8A
:1056E000FFFFFFFFFFFFC6019FFFFFFC6307F1F312
:1056F000FCF83E7C1F1E300C7FC6319CFFC07C60D6
:10570000C1F00C7807CC7F1E31FFFFFFE33FFFFFA6
:10571000FFFFFFFFFFFFFFFFC6019FFFFFFC6307C7
:10572000F1F3FCF83E7C1F1E300C7FC6319CFFC09D
:105730007C60C1F00C7807CC7F1E31FFFFFFE31FB8
:10574000FFFFFFFFFFFFFFFFFFFFC6019FFFFFFC03
:105750006307F1F3FCF83E7C1F1E300C7FC6319CC2
:10576000FFC07C60C1F00C7807CC7F1E31FFFFFFCB
:10577000E30FFFFFFFFFFFFFFFFFFFFFC6019FFFDC
:10578000FFFC6307F1F3FCF83E7C1F1E300C7FC664
:10579000319CFFC07C60C1F00C7807CC7F1E31FFCC
:1057A000FFFFE313FFFFFFFFFFFFFFFFFFFFC60148
:1057B0009FFFFFFC6307F1F3FCF83E7C1F1E300CDB
:1057C0007FC6319CFFC07C60C1F00C7807CC7F1E87
:1057D00031FFFFFFE339FFFFFFFFFFFFFFFFFFFF89
:1057E000C6019FFFFFFC6307F1F3FCF83E7C1F1E20
:1057F000300C7FC6319CFFC07C60C1F00C7807CCB8
:105800007F1E31FFFFFFE33E7FFFFFFFFFFFFFFF34
:10581000FFFFC6019FFFFFFC6307F1F3FCF83E7C2E
:105820001F1E300C7FC6319CFFC07C60C1F00C781D
:1058300007CC7F1E31FFFFFFE33F3FFFFFFFFFFF6E
:10584000FFFFFFFFC6019FFFFFFC6307F1F3FCF8BA
:105850003E7C1F1E300C7FC6319CFFC07C60C1F0B7
:105860000C7807CC7F1E31FFFFFFE33FCFFFFFFF28
:10587000FFFFFFFFFFFFC6019FFFFFFC6307F1F380
:10588000FCF83E7C1F1E300C7FC6319CFFC07C6044
:10589000C1F00C7807CC7F1E31FFFFFFE33FF7FF1D
:1058A000FFFFFFFFFFFFFFFFC6019FFFFFFC630736
:1058B000F1F3FCF83E7C1F1E300C7FC6319CFFC00C
:1058C0007C60C1F00C7807CC7F1E31FFFFFFE33F07
:1058D000F9FFFFFFFFFFFFFFFFFFC6019FFFFFFC78
:1058E0006307F1F3FCF83E7C1F1E300C7FC6319C31
:1058F000FFC07C60C1F00C7807CC7F1E31FFFFFF3A
:10590000E33FFCFFFFFFFFFFFFFFFFFFC6019FFF1D
:10591000FFFC6307F1F3FCF83E7C1F1E300C7FC6D2
:10592000319CFFC07C60C1F00C7807CC7F1E31FF3A
:10593000FFFFE33FFF7FFFFFFFFFFFFFFFFFC6010A
:105940009FFFFFFC6307F1F3FCF83E7C1F1E300C49
:105950007FC6319CFFC07C60C1F00C7807CC7F1EF5
:1059600031FFFFFFE33FFFBFFFFFFFFFFFFFFFFF31
:10597000C6019FFFFFFC6307F1F3FCF83E7C1F1E8E
:10598000300C7FC6319CFFC07C60C1F00C7807CC26
:105990007F1E31FFFFFFE33FFF9FFFFFFFFFFFFF82
:1059A000FFFFC6019FFFFFFC6307F1F3FCF83E7C9D
:1059B0001F1E300C7FC6319CFFC07C60C1F00C788C
:1059C00007CC7F1E31FFFFFFE33FFFCFFFFFFFFF4D
:1059D000FFFFFFFFC6019FFFFFFC6307F1F3FCF829
:1059E0003E7C1F1E300C7FC6319CFFC07C60C1F026
:1059F0000C7807CC7F1E31FFFFFFE33FFFEFFFFF77
:105A0000FFFFFFFFFFFFC6019FFFFFFC6307F1F3EE
:105A1000FCF83E7C1F1E300C7FC6319CFFC07C60B2
:105A2000C1F00C7807CC7F1E31FFFFFFE33FFFF78B
:105A3000FFFFFFFFFFFFFFFFC6019FFFFFFC6307A4
:105A4000F1F3FCF83E7C1F1E300C7FC6319CFFC07A
:105A50007C60C1F00C7807CC7F1E31FFFFFFE33F75
:105A6000FFF7FFFFFFFFFFFFFFFFC6019FFFFFFCE8
:105A70006307F1F3FCF83E7C1F1E300C7FC6319C9F
:105A8000FFC07C60C1F00C7807CC7F1E31FFFFFFA8
:105A9000E33FFFFBFFFFFFFFFFFFFFFFC6019FFF8D
:105AA000FFFC6307F1F3FCF83E7C1F1E300C7FC641
:105AB000319CFFC07C60C1F00C7807CC7F1E31FFA9
:105AC000FFFFE33FFFFBFFFFFFFFFFFFFFFFC601FD
:105AD0009FFFFFFC6307F1F3FCF83E7C1F1E300CB8
:105AE0007FC6319CFFC07C60C1F00C7807CC7F1E64
:105AF00031FFFFFFE33FFFFBFFFFFFFFFFFFFFFF64
:105B0000C6019FFFFFFC6307F1F3FCF83E7C1F1EFC
:105B1000300C7FC6319CFFC07C60C1F00C7807CC94
:105B20007F1E31FFFFFFE33FFFFDFFFFFFFFFFFF92
:105B3000FFFFC6019FFFFFFC6307F1F3FCF83E7C0B
:105B40001F1E300C7FC6319CFFC07C60C1F00C78FA
:105B500007CC7F1E31FFFFFFE33FFFFDFFFFFFFF8D
:105B6000FFFFFFFFC6019FFFFFFC6307F1F3FCF897
:105B70003E7C1F1E300C7FC6319CFFC07C60C1F094
:105B80000C7807CC7F1E31FFFFFFE33FFFFDFFFFD7
:105B9000FFFFFFFFFFFFC6019FFFFFFC6307F1F35D
:105BA000FCF83E7C1F1E300C7FC6319CFFC07C6021
:105BB000C1F00C7807CC7F1E31FFFFFFE33FFFFDF4
:105BC000FFFFFFFFFFFFFFFFC6019FFFFFFC630713
:105BD000F1F3FCF83E7C1F1E300C7FC6319CFFC0E9
:105BE0007C60C1F00C7807CC7F1E31FFFFFFE33FE4
:105BF000FFFEFFFFFFFFFFFFFFFFC6019FFFFFFC50
:105C00006307F1F3FCF83E7C1F1E300C7FC6319C0D
:105C1000FFC07C60C1F00C7807CC7F1E31FFFFFF16
:105C2000E33FFFFEFFFFFFFFFFFFFFFFC6019FFFF8
:105C3000FFFC6307F1F3FCF83E7C1F1E300C7FC6AF
:105C4000319CFFC07C60C1F00C7807CC7F1E31FF17
:105C5000FFFFE33FFFFEFFFFFFFFFFFFFFFFC60168
:105C60009FFFFFFC6307F1F3FCF83E7C1F1E300C26
:105C70007FC6319CFFC07C60C1F00C7807CC7F1ED2
:105C800031FFFFFFE33FFFFEFFFFFFFFFFFFFFFFCF
:105C9000C6019FFFFFFC6307F1F3FCF83E7C1F1E6B
:105CA000300C7FC6319CFFC07C60C1F00C7807CC03
:105CB0007F1E31FFFFFFE33FFFFEFFFFFFFFFFFF00
:105CC000FFFFC6019FFFFFFC6307F1F3FCF83E7C7A
:105CD0001F1E300C7FC6319CFFC07C60C1F00C7869
:105CE00007CC7F1E31FFFFFFE33FFFFEFFFFFFFFFB
:105CF000FFFFFFFFC6019FFFFFFC6307F1F3FCF806
:105D00003E7C1F1E300C7FC6319CFFC07C60C1F002
:105D10000C7807CC7F1E31FFFFFFE33FFFFEFFFF44
:105D2000FFFFFFFFFFFFC6019FFFFFFC6307F1F3CB
:105D3000FCF83E7C1F1E300C7FC6319CFFC07C608F
:105D4000C1F00C7807CC7F1E31FFFFFFE33FFFFE61
:105D5000FFFFFFFFFFFFFFFFC6019FFFFFFC630781
:105D6000F1F3FCF83E7C1F1E300C7FC6319CFFC057
:105D70007C60C1F00C7807CC7F1E31FFFFFFE33F52
:105D8000FFFEFFFFFFFFFFFFFFFFC6019FFFFFFCBE
:105D90006307F1F3FCF83E7C1F1E300C7FC6319C7C
:105DA000FFC07C60C1F00C7807CC7F1E31FFFFFF85
:105DB000E33FFFFDFFFFFFFFFFFFFFFFC6019FFF68
:105DC000FFFC6307F1F3FCF83E7C1F1E300C7FC61E
:105DD000319CFFC07C60C1F00C7807CC7F1E31FF86
:105DE000FFFFE33FFFFDFFFFFFFFFFFFFFFFC601D8
:105DF0009FFFFFFC6307F1F3FCF83E7C1F1E300C95
:105E00007FC6319CFFC07C60C1F00C7807CC7F1E40
:105E100031FFFFFFE33FFFFBFFFFFFFFFFFFFFFF40
:105E2000C6019FFFFFFC6307F1F3FCF83E7C1F1ED9
:105E3000300C7FC6319CFFC07C60C1F00C7807CC71
:105E40007F1E31FFFFFFE33FFFF7FFFFFFFFFFFF75
:105E5000FFFFC6019FFFFFFC6307F1F3FCF83E7CE8
:105E60001F1E300C7FC6319CFFC07C60C1F00C78D7
:105E700007CC7F1E31FFFFFFE33FFFE7FFFFFFFF80
:105E8000FFFFFFFFC6019FFFFFFC6307F1F3FCF874
:105E90003E7C1F1E300C7FC6319CFFC07C60C1F071
:105EA0000C7807CC7F1E31FFFFFFE33FFFCFFFFFE2
:105EB000FFFFFFFFFFFF46019FFFFFFC6307F1F3BA
:105EC000FCF83E7C1F1E300C7FC6319CFFC07C60FE
:105ED000C1F00C7807CC7F1E31FFFFFFE33FFF9F2F
:105EE000FFFFFFFFFFFFFFFF46019FFFFFFC630770
:105EF000F1F3FCF83E7C1F1E300C7FC6319CFFC0C6
:105F00007C60C1F00C7807CC7F1E31FFFFFFE33FC0
:105F1000FF3FFFFFFFFFFFFFFFFF06019FFFFFFCAB
:105F20006307F1F3FCF83E7C1F1E300C7FC6319CEA
:105F3000FFC07C60C1F00C7807CC7F1E31FFFFFFF3
:105F4000E33FFE7FFFFFFFFFFFFFFFFF06019FFF15
:105F5000FFFC6307F1F3FCF83E7C1F1E300C7FC68C
:105F6000319CFFC07C60C1F00C7807CC7F1E31FFF4
:105F7000FFFFE33FFCFFFFFFFFFFFFFFFFFF860187
:105F80009FFFFFFC6307F1F3FCF83E7C1F1E300C03
:105F90007FC6319CFFC07C60C1F00C7807CC7F1EAF
:105FA00031FFFFFFE33FF9FFFFFFFFFFFFFFFFFFB1
:105FB00086019FFFFFFC6307F1F3FCF83E7C1F1E88
:105FC000300C7FC6319CFFC07C60C1F00C7807CCE0
:105FD0007F1E31FFFFFFE33FF3FFFFFFFFFFFFFFE8
:105FE000FFFF86019FFFFFFC6307F1F3FCF83E7C97
:105FF0001F1E300C7FC6319CFFC07C60C1F00C7846
:1060000007CC7F1E31FFFFFFE33FE7FFFFFFFFFFEE
:10601000FFFFFFFFC6019FFFFFFC6307F1F3FCF8E2
:106020003E7C1F1E300C7FC6319CFFC07C60C1F0DF
:106030000C7807CC7F1E31FFFFFFE33FCFFFFFFF50
:10604000FFFFFFFFFFFFC6019FFFFFFC6307F1F3A8
:10605000FCF83E7C1F1E300C7FC6319CFFC07C606C
:10606000C1F00C7807CC7F1E31FFFFFFE33F9FFF9D
:10607000FFFFFFFFFFFFFFFFC0019FFFFFFC630764
:10608000F1F3FCF83E7C1F1E300C7FC6319CFFC034
:106090007C60C1F00C7807CC7F1E31FFFFFFE33F2F
:1060A0003FFFFFFFFFFFFFFFFFFFC0019FFFFFFC60
:1060B0006307F1F3FCF83E7C1F1E300C7FC6319C59
:1060C000FFC07C60C1F00C7807CC7F1E31FFFFFF62
:1060D000E33E7FFFFFFFFFFFFFFFFFFFCFF09FFFCC
:1060E000FFFC6307F1F3FCF83E7C1F1E300C7FC6FB
:1060F000319CFFC07C60C1F00C7807CC7F1E31FF63
:10610000FFFFE33DFFFFFFFFFFFFFFFFFFFFFFF884
:106110001FFFFFFC6307F1F3FCF83E7C1F1E300CF1
:106120007FC6319CFFC07C60C1F00C7807CC7F1E1D
:1061300031FFFFFFE33BFFFFFFFFFFFFFFFFFFFF1D
:10614000FFFC1FFFFFFC6307F1F3FCF83E7C1F1E02
:10615000300C7FC6319CFFC07C60C1F00C7807CC4E
:106160007F1E31FFFFFFE337FFFFFFFFFFFFFFFF52
:10617000FFFFFFFE1FFFFFFC6307F1F3FCF83E7C0F
:106180001F1E300C7FC6319CFFC07C60C1F00C78B4
:1061900007CC7F1E31FFFFFFE30FFFFFFFFFFFFF75
:1061A000FFFFFFFFFFFF1FFFFFFC6307F1F3FCF89A
:1061B0003E7C1F1E300C7FC6319CFFC07C60C1F04E
:1061C0000C7807CC7F1E31FFFFFFE31FFFFFFFFFAF
:1061D000FFFFFFFFFFFFFFFF1FFFFFFC6307F1F360
:1061E000FCF83E7C1F1E300C7FC6319CFFC07C60DB
:1061F000C1F00C7807CC7F1E31FFFFFFE33FFFFFAC
:10620000FFFFFFFFFFFFFFFFFFFF9FFFFFFC630795
:10621000F1F3FCF83E7C1F1E300C7FC6319CFFC0A2
:106220007C60C1F00C7807CC7F1E31FFFFFFE27F5E
:10623000FFFFFFFFFFFFFFFFFFFFFFFF9FFFFFFCD1
:106240006307F1F3FCF83E7C1F1E300C7FC6319CC7
:10625000FFC07C60C1F00C7807CC7F1E31FFFFFFD0
:10626000E0FFFFFFFFFFFFFFFFFFFFFFFFFF9FFFBD
:10627000FFFC6307F1F3FCF83E7C1F1E300C7FC669
:10628000319CFFC07C60C1F00C7807CC7F1E31FFD1
:10629000FFFFE1FFFFFFFFFFFFFFFFFFFFFFFFFF2C
:1062A000DFFFFFFC6307F1F3FCF83E7C1F1E300CA0
:1062B0007FC6319CFFC07C60C1F00C7807CC7F1E8C
:1062C00031FFFFFFE7FFFFFFFFFFFFFFFFFFFFFFC4
